{
  "contractName": "Deccert",
  "abi": [
    {
      "inputs": [],
      "stateMutability": "nonpayable",
      "type": "constructor"
    },
    {
      "anonymous": false,
      "inputs": [
        {
          "indexed": true,
          "internalType": "address",
          "name": "owner",
          "type": "address"
        },
        {
          "indexed": true,
          "internalType": "address",
          "name": "approved",
          "type": "address"
        },
        {
          "indexed": true,
          "internalType": "uint256",
          "name": "tokenId",
          "type": "uint256"
        }
      ],
      "name": "Approval",
      "type": "event"
    },
    {
      "anonymous": false,
      "inputs": [
        {
          "indexed": true,
          "internalType": "address",
          "name": "owner",
          "type": "address"
        },
        {
          "indexed": true,
          "internalType": "address",
          "name": "operator",
          "type": "address"
        },
        {
          "indexed": false,
          "internalType": "bool",
          "name": "approved",
          "type": "bool"
        }
      ],
      "name": "ApprovalForAll",
      "type": "event"
    },
    {
      "anonymous": false,
      "inputs": [
        {
          "indexed": true,
          "internalType": "address",
          "name": "previousOwner",
          "type": "address"
        },
        {
          "indexed": true,
          "internalType": "address",
          "name": "newOwner",
          "type": "address"
        }
      ],
      "name": "OwnershipTransferred",
      "type": "event"
    },
    {
      "anonymous": false,
      "inputs": [
        {
          "indexed": true,
          "internalType": "address",
          "name": "from",
          "type": "address"
        },
        {
          "indexed": true,
          "internalType": "address",
          "name": "to",
          "type": "address"
        },
        {
          "indexed": true,
          "internalType": "uint256",
          "name": "tokenId",
          "type": "uint256"
        }
      ],
      "name": "Transfer",
      "type": "event"
    },
    {
      "inputs": [
        {
          "internalType": "string",
          "name": "",
          "type": "string"
        }
      ],
      "name": "_names",
      "outputs": [
        {
          "internalType": "bool",
          "name": "",
          "type": "bool"
        }
      ],
      "stateMutability": "view",
      "type": "function",
      "constant": true
    },
    {
      "inputs": [
        {
          "internalType": "address",
          "name": "to",
          "type": "address"
        },
        {
          "internalType": "uint256",
          "name": "tokenId",
          "type": "uint256"
        }
      ],
      "name": "approve",
      "outputs": [],
      "stateMutability": "nonpayable",
      "type": "function"
    },
    {
      "inputs": [
        {
          "internalType": "address",
          "name": "owner",
          "type": "address"
        }
      ],
      "name": "balanceOf",
      "outputs": [
        {
          "internalType": "uint256",
          "name": "",
          "type": "uint256"
        }
      ],
      "stateMutability": "view",
      "type": "function",
      "constant": true
    },
    {
      "inputs": [
        {
          "internalType": "uint256",
          "name": "tokenId",
          "type": "uint256"
        }
      ],
      "name": "getApproved",
      "outputs": [
        {
          "internalType": "address",
          "name": "",
          "type": "address"
        }
      ],
      "stateMutability": "view",
      "type": "function",
      "constant": true
    },
    {
      "inputs": [
        {
          "internalType": "address",
          "name": "owner",
          "type": "address"
        },
        {
          "internalType": "address",
          "name": "operator",
          "type": "address"
        }
      ],
      "name": "isApprovedForAll",
      "outputs": [
        {
          "internalType": "bool",
          "name": "",
          "type": "bool"
        }
      ],
      "stateMutability": "view",
      "type": "function",
      "constant": true
    },
    {
      "inputs": [],
      "name": "name",
      "outputs": [
        {
          "internalType": "string",
          "name": "",
          "type": "string"
        }
      ],
      "stateMutability": "view",
      "type": "function",
      "constant": true
    },
    {
      "inputs": [],
      "name": "owner",
      "outputs": [
        {
          "internalType": "address",
          "name": "",
          "type": "address"
        }
      ],
      "stateMutability": "view",
      "type": "function",
      "constant": true
    },
    {
      "inputs": [
        {
          "internalType": "uint256",
          "name": "tokenId",
          "type": "uint256"
        }
      ],
      "name": "ownerOf",
      "outputs": [
        {
          "internalType": "address",
          "name": "",
          "type": "address"
        }
      ],
      "stateMutability": "view",
      "type": "function",
      "constant": true
    },
    {
      "inputs": [],
      "name": "renounceOwnership",
      "outputs": [],
      "stateMutability": "nonpayable",
      "type": "function"
    },
    {
      "inputs": [
        {
          "internalType": "address",
          "name": "from",
          "type": "address"
        },
        {
          "internalType": "address",
          "name": "to",
          "type": "address"
        },
        {
          "internalType": "uint256",
          "name": "tokenId",
          "type": "uint256"
        }
      ],
      "name": "safeTransferFrom",
      "outputs": [],
      "stateMutability": "nonpayable",
      "type": "function"
    },
    {
      "inputs": [
        {
          "internalType": "address",
          "name": "from",
          "type": "address"
        },
        {
          "internalType": "address",
          "name": "to",
          "type": "address"
        },
        {
          "internalType": "uint256",
          "name": "tokenId",
          "type": "uint256"
        },
        {
          "internalType": "bytes",
          "name": "_data",
          "type": "bytes"
        }
      ],
      "name": "safeTransferFrom",
      "outputs": [],
      "stateMutability": "nonpayable",
      "type": "function"
    },
    {
      "inputs": [
        {
          "internalType": "address",
          "name": "operator",
          "type": "address"
        },
        {
          "internalType": "bool",
          "name": "approved",
          "type": "bool"
        }
      ],
      "name": "setApprovalForAll",
      "outputs": [],
      "stateMutability": "nonpayable",
      "type": "function"
    },
    {
      "inputs": [
        {
          "internalType": "bytes4",
          "name": "interfaceId",
          "type": "bytes4"
        }
      ],
      "name": "supportsInterface",
      "outputs": [
        {
          "internalType": "bool",
          "name": "",
          "type": "bool"
        }
      ],
      "stateMutability": "view",
      "type": "function",
      "constant": true
    },
    {
      "inputs": [],
      "name": "symbol",
      "outputs": [
        {
          "internalType": "string",
          "name": "",
          "type": "string"
        }
      ],
      "stateMutability": "view",
      "type": "function",
      "constant": true
    },
    {
      "inputs": [
        {
          "internalType": "uint256",
          "name": "tokenId",
          "type": "uint256"
        }
      ],
      "name": "tokenURI",
      "outputs": [
        {
          "internalType": "string",
          "name": "",
          "type": "string"
        }
      ],
      "stateMutability": "view",
      "type": "function",
      "constant": true
    },
    {
      "inputs": [
        {
          "internalType": "address",
          "name": "from",
          "type": "address"
        },
        {
          "internalType": "address",
          "name": "to",
          "type": "address"
        },
        {
          "internalType": "uint256",
          "name": "tokenId",
          "type": "uint256"
        }
      ],
      "name": "transferFrom",
      "outputs": [],
      "stateMutability": "nonpayable",
      "type": "function"
    },
    {
      "inputs": [
        {
          "internalType": "address",
          "name": "newOwner",
          "type": "address"
        }
      ],
      "name": "transferOwnership",
      "outputs": [],
      "stateMutability": "nonpayable",
      "type": "function"
    },
    {
      "inputs": [
        {
          "internalType": "string",
          "name": "_name",
          "type": "string"
        },
        {
          "internalType": "string",
          "name": "_uri",
          "type": "string"
        },
        {
          "internalType": "address",
          "name": "who",
          "type": "address"
        }
      ],
      "name": "ManualMinting",
      "outputs": [
        {
          "internalType": "uint256",
          "name": "",
          "type": "uint256"
        }
      ],
      "stateMutability": "nonpayable",
      "type": "function"
    },
    {
      "inputs": [
        {
          "internalType": "string",
          "name": "_name",
          "type": "string"
        },
        {
          "internalType": "string",
          "name": "_uri",
          "type": "string"
        },
        {
          "internalType": "address",
          "name": "who",
          "type": "address"
        }
      ],
      "name": "PermissionMinting",
      "outputs": [
        {
          "internalType": "uint256",
          "name": "",
          "type": "uint256"
        }
      ],
      "stateMutability": "nonpayable",
      "type": "function"
    },
    {
      "inputs": [
        {
          "internalType": "string",
          "name": "_name",
          "type": "string"
        },
        {
          "internalType": "string",
          "name": "_uri",
          "type": "string"
        },
        {
          "internalType": "address",
          "name": "who",
          "type": "address"
        }
      ],
      "name": "PreMinting",
      "outputs": [
        {
          "internalType": "uint256",
          "name": "",
          "type": "uint256"
        }
      ],
      "stateMutability": "payable",
      "type": "function",
      "payable": true
    },
    {
      "inputs": [
        {
          "internalType": "string",
          "name": "_name",
          "type": "string"
        },
        {
          "internalType": "string",
          "name": "_uri",
          "type": "string"
        },
        {
          "internalType": "address",
          "name": "_token_address",
          "type": "address"
        },
        {
          "internalType": "address",
          "name": "who",
          "type": "address"
        }
      ],
      "name": "PreMintingERC20",
      "outputs": [
        {
          "internalType": "uint256",
          "name": "",
          "type": "uint256"
        }
      ],
      "stateMutability": "nonpayable",
      "type": "function"
    },
    {
      "inputs": [
        {
          "internalType": "uint256",
          "name": "tokenId",
          "type": "uint256"
        },
        {
          "internalType": "string",
          "name": "_uri",
          "type": "string"
        }
      ],
      "name": "SignCertificate",
      "outputs": [],
      "stateMutability": "nonpayable",
      "type": "function"
    },
    {
      "inputs": [
        {
          "internalType": "address",
          "name": "_user",
          "type": "address"
        },
        {
          "internalType": "uint256",
          "name": "_howMuch",
          "type": "uint256"
        },
        {
          "internalType": "string",
          "name": "_uri",
          "type": "string"
        }
      ],
      "name": "givePermission",
      "outputs": [],
      "stateMutability": "nonpayable",
      "type": "function"
    },
    {
      "inputs": [
        {
          "internalType": "address",
          "name": "_user",
          "type": "address"
        },
        {
          "internalType": "uint256",
          "name": "_howMuch",
          "type": "uint256"
        },
        {
          "internalType": "string",
          "name": "_uri",
          "type": "string"
        }
      ],
      "name": "giveMintingPower",
      "outputs": [],
      "stateMutability": "nonpayable",
      "type": "function"
    },
    {
      "inputs": [
        {
          "internalType": "address",
          "name": "coinAddress",
          "type": "address"
        }
      ],
      "name": "addCoin",
      "outputs": [],
      "stateMutability": "nonpayable",
      "type": "function"
    },
    {
      "inputs": [
        {
          "internalType": "uint256",
          "name": "_newPrice",
          "type": "uint256"
        }
      ],
      "name": "setPrice",
      "outputs": [],
      "stateMutability": "nonpayable",
      "type": "function"
    },
    {
      "inputs": [
        {
          "internalType": "address",
          "name": "coin",
          "type": "address"
        },
        {
          "internalType": "uint256",
          "name": "_newPrice",
          "type": "uint256"
        }
      ],
      "name": "setPriceERC20",
      "outputs": [],
      "stateMutability": "nonpayable",
      "type": "function"
    },
    {
      "inputs": [
        {
          "internalType": "uint256",
          "name": "_index",
          "type": "uint256"
        }
      ],
      "name": "get",
      "outputs": [
        {
          "components": [
            {
              "internalType": "uint256",
              "name": "tokenId",
              "type": "uint256"
            },
            {
              "internalType": "string",
              "name": "name",
              "type": "string"
            },
            {
              "internalType": "address",
              "name": "owner",
              "type": "address"
            },
            {
              "internalType": "address",
              "name": "previusOwner",
              "type": "address"
            },
            {
              "internalType": "uint256",
              "name": "blockNumber",
              "type": "uint256"
            },
            {
              "internalType": "uint256",
              "name": "time",
              "type": "uint256"
            }
          ],
          "internalType": "struct Deccert.Certi",
          "name": "",
          "type": "tuple"
        }
      ],
      "stateMutability": "view",
      "type": "function",
      "constant": true
    },
    {
      "inputs": [
        {
          "internalType": "uint256",
          "name": "_index",
          "type": "uint256"
        }
      ],
      "name": "check",
      "outputs": [],
      "stateMutability": "view",
      "type": "function",
      "constant": true
    },
    {
      "inputs": [],
      "name": "getTotal",
      "outputs": [
        {
          "internalType": "uint256",
          "name": "",
          "type": "uint256"
        }
      ],
      "stateMutability": "view",
      "type": "function",
      "constant": true
    }
  ],
  "bytecode": "0x60806040526305f5e100600c553480156200001957600080fd5b506040518060400160405280600781526020017f44656363657274000000000000000000000000000000000000000000000000008152506040518060400160405280600781526020017f444543434552540000000000000000000000000000000000000000000000000081525081600090805190602001906200009e929190620001ae565b508060019080519060200190620000b7929190620001ae565b505050620000da620000ce620000e060201b60201c565b620000e860201b60201c565b620002c3565b600033905090565b6000600760009054906101000a900473ffffffffffffffffffffffffffffffffffffffff16905081600760006101000a81548173ffffffffffffffffffffffffffffffffffffffff021916908373ffffffffffffffffffffffffffffffffffffffff1602179055508173ffffffffffffffffffffffffffffffffffffffff168173ffffffffffffffffffffffffffffffffffffffff167f8be0079c531659141344cd1fd0a4f28419497f9722a3daafe3b4186f6b6457e060405160405180910390a35050565b828054620001bc906200025e565b90600052602060002090601f016020900481019282620001e057600085556200022c565b82601f10620001fb57805160ff19168380011785556200022c565b828001600101855582156200022c579182015b828111156200022b5782518255916020019190600101906200020e565b5b5090506200023b91906200023f565b5090565b5b808211156200025a57600081600090555060010162000240565b5090565b600060028204905060018216806200027757607f821691505b602082108114156200028e576200028d62000294565b5b50919050565b7f4e487b7100000000000000000000000000000000000000000000000000000000600052602260045260246000fd5b614bc080620002d36000396000f3fe6080604052600436106101cd5760003560e01c8063775a25e3116100f7578063a22cb46511610095578063d1760fac11610064578063d1760fac146106ad578063e985e9c5146106ea578063f2fde38b14610727578063f8a2d7a814610750576101cd565b8063a22cb465146105e1578063b88d4fde1461060a578063c54ad05b14610633578063c87b56dd14610670576101cd565b806391b7f5ed116100d157806391b7f5ed146105205780639507d39a1461054957806395d89b4114610586578063977a3093146105b1576101cd565b8063775a25e31461048d5780638691c69c146104b85780638da5cb5b146104f5576101cd565b806342842e0e1161016f5780636352211e1161013e5780636352211e146103d357806370a0823114610410578063715018a61461044d57806376627eab14610464576101cd565b806342842e0e1461031b5780634fe8695314610344578063571429ba146103815780635f72f450146103aa576101cd565b8063095ea7b3116101ab578063095ea7b31461027757806310493713146102a057806316da8632146102c957806323b872dd146102f2576101cd565b806301ffc9a7146101d257806306fdde031461020f578063081812fc1461023a575b600080fd5b3480156101de57600080fd5b506101f960048036038101906101f49190613641565b610779565b6040516102069190613dee565b60405180910390f35b34801561021b57600080fd5b5061022461085b565b6040516102319190613e09565b60405180910390f35b34801561024657600080fd5b50610261600480360381019061025c91906137e6565b6108ed565b60405161026e9190613d50565b60405180910390f35b34801561028357600080fd5b5061029e60048036038101906102999190613575565b610972565b005b3480156102ac57600080fd5b506102c760048036038101906102c2919061380f565b610a8a565b005b3480156102d557600080fd5b506102f060048036038101906102eb919061340a565b610bcb565b005b3480156102fe57600080fd5b506103196004803603810190610314919061346f565b610cad565b005b34801561032757600080fd5b50610342600480360381019061033d919061346f565b610d0d565b005b34801561035057600080fd5b5061036b600480360381019061036691906136d4565b610d2d565b604051610378919061410d565b60405180910390f35b34801561038d57600080fd5b506103a860048036038101906103a39190613575565b610fea565b005b3480156103b657600080fd5b506103d160048036038101906103cc91906137e6565b6111b2565b005b3480156103df57600080fd5b506103fa60048036038101906103f591906137e6565b611223565b6040516104079190613d50565b60405180910390f35b34801561041c57600080fd5b506104376004803603810190610432919061340a565b6112d5565b604051610444919061410d565b60405180910390f35b34801561045957600080fd5b5061046261138d565b005b34801561047057600080fd5b5061048b600480360381019061048691906135b1565b611415565b005b34801561049957600080fd5b506104a26114f6565b6040516104af919061410d565b60405180910390f35b3480156104c457600080fd5b506104df60048036038101906104da91906136d4565b611507565b6040516104ec919061410d565b60405180910390f35b34801561050157600080fd5b5061050a61172f565b6040516105179190613d50565b60405180910390f35b34801561052c57600080fd5b50610547600480360381019061054291906137e6565b611759565b005b34801561055557600080fd5b50610570600480360381019061056b91906137e6565b6117df565b60405161057d91906140eb565b60405180910390f35b34801561059257600080fd5b5061059b611968565b6040516105a89190613e09565b60405180910390f35b6105cb60048036038101906105c691906136d4565b6119fa565b6040516105d8919061410d565b60405180910390f35b3480156105ed57600080fd5b5061060860048036038101906106039190613539565b611ba6565b005b34801561061657600080fd5b50610631600480360381019061062c91906134be565b611bbc565b005b34801561063f57600080fd5b5061065a60048036038101906106559190613753565b611c1e565b604051610667919061410d565b60405180910390f35b34801561067c57600080fd5b50610697600480360381019061069291906137e6565b611fb6565b6040516106a49190613e09565b60405180910390f35b3480156106b957600080fd5b506106d460048036038101906106cf9190613693565b612108565b6040516106e19190613dee565b60405180910390f35b3480156106f657600080fd5b50610711600480360381019061070c9190613433565b61213e565b60405161071e9190613dee565b60405180910390f35b34801561073357600080fd5b5061074e6004803603810190610749919061340a565b6121d2565b005b34801561075c57600080fd5b50610777600480360381019061077291906135b1565b6122ca565b005b60007f80ac58cd000000000000000000000000000000000000000000000000000000007bffffffffffffffffffffffffffffffffffffffffffffffffffffffff1916827bffffffffffffffffffffffffffffffffffffffffffffffffffffffff1916148061084457507f5b5e139f000000000000000000000000000000000000000000000000000000007bffffffffffffffffffffffffffffffffffffffffffffffffffffffff1916827bffffffffffffffffffffffffffffffffffffffffffffffffffffffff1916145b806108545750610853826123ab565b5b9050919050565b60606000805461086a9061439e565b80601f01602080910402602001604051908101604052809291908181526020018280546108969061439e565b80156108e35780601f106108b8576101008083540402835291602001916108e3565b820191906000526020600020905b8154815290600101906020018083116108c657829003601f168201915b5050505050905090565b60006108f882612415565b610937576040517f08c379a000000000000000000000000000000000000000000000000000000000815260040161092e9061400b565b60405180910390fd5b6004600083815260200190815260200160002060009054906101000a900473ffffffffffffffffffffffffffffffffffffffff169050919050565b600061097d82611223565b90508073ffffffffffffffffffffffffffffffffffffffff168373ffffffffffffffffffffffffffffffffffffffff1614156109ee576040517f08c379a00000000000000000000000000000000000000000000000000000000081526004016109e59061408b565b60405180910390fd5b8073ffffffffffffffffffffffffffffffffffffffff16610a0d612481565b73ffffffffffffffffffffffffffffffffffffffff161480610a3c5750610a3b81610a36612481565b61213e565b5b610a7b576040517f08c379a0000000000000000000000000000000000000000000000000000000008152600401610a7290613f4b565b60405180910390fd5b610a858383612489565b505050565b806000600d82604051610a9d9190613d15565b908152602001604051809103902060003373ffffffffffffffffffffffffffffffffffffffff1673ffffffffffffffffffffffffffffffffffffffff1681526020019081526020016000205411610b29576040517f08c379a0000000000000000000000000000000000000000000000000000000008152600401610b209061404b565b60405180910390fd5b600d81604051610b399190613d15565b908152602001604051809103902060003373ffffffffffffffffffffffffffffffffffffffff1673ffffffffffffffffffffffffffffffffffffffff1681526020019081526020016000206000815480929190610b9590614374565b919050555060016011600085815260200190815260200160002060006101000a81548160ff021916908315150217905550505050565b610bd3612481565b73ffffffffffffffffffffffffffffffffffffffff16610bf161172f565b73ffffffffffffffffffffffffffffffffffffffff1614610c47576040517f08c379a0000000000000000000000000000000000000000000000000000000008152600401610c3e9061402b565b60405180910390fd5b6009819080600181540180825580915050600190039060005260206000200160009091909190916101000a81548173ffffffffffffffffffffffffffffffffffffffff021916908373ffffffffffffffffffffffffffffffffffffffff16021790555050565b610cbe610cb8612481565b82612542565b610cfd576040517f08c379a0000000000000000000000000000000000000000000000000000000008152600401610cf4906140ab565b60405180910390fd5b610d08838383612620565b505050565b610d2883838360405180602001604052806000815250611bbc565b505050565b6000826000600e82604051610d429190613d15565b908152602001604051809103902060003373ffffffffffffffffffffffffffffffffffffffff1673ffffffffffffffffffffffffffffffffffffffff1681526020019081526020016000205411610dce576040517f08c379a0000000000000000000000000000000000000000000000000000000008152600401610dc590613f0b565b60405180910390fd5b600e81604051610dde9190613d15565b908152602001604051809103902060003373ffffffffffffffffffffffffffffffffffffffff1673ffffffffffffffffffffffffffffffffffffffff1681526020019081526020016000206000815480929190610e3a90614374565b9190505550610e496008612887565b6000610e55600861289d565b9050610e6133826128ab565b610e6b8186612a85565b60016011600083815260200190815260200160002060006101000a81548160ff02191690831515021790555060006040518060c00160405280610eae600861289d565b81526020018881526020018673ffffffffffffffffffffffffffffffffffffffff1681526020018673ffffffffffffffffffffffffffffffffffffffff1681526020014381526020014281525090508060106000848152602001908152602001600020600082015181600001556020820151816001019080519060200190610f379291906131b7565b5060408201518160020160006101000a81548173ffffffffffffffffffffffffffffffffffffffff021916908373ffffffffffffffffffffffffffffffffffffffff16021790555060608201518160030160006101000a81548173ffffffffffffffffffffffffffffffffffffffff021916908373ffffffffffffffffffffffffffffffffffffffff1602179055506080820151816004015560a082015181600501559050508193505050509392505050565b610ff2612481565b73ffffffffffffffffffffffffffffffffffffffff1661101061172f565b73ffffffffffffffffffffffffffffffffffffffff1614611066576040517f08c379a000000000000000000000000000000000000000000000000000000000815260040161105d9061402b565b60405180910390fd5b600081116110a9576040517f08c379a00000000000000000000000000000000000000000000000000000000081526004016110a090613e4b565b60405180910390fd5b60005b6009805490508110156111ad578273ffffffffffffffffffffffffffffffffffffffff166009828154811061110a577f4e487b7100000000000000000000000000000000000000000000000000000000600052603260045260246000fd5b9060005260206000200160009054906101000a900473ffffffffffffffffffffffffffffffffffffffff1673ffffffffffffffffffffffffffffffffffffffff16141561119a5781600a60008573ffffffffffffffffffffffffffffffffffffffff1673ffffffffffffffffffffffffffffffffffffffff168152602001908152602001600020819055506111ad565b80806111a590614401565b9150506110ac565b505050565b3373ffffffffffffffffffffffffffffffffffffffff166010600083815260200190815260200160002060020160009054906101000a900473ffffffffffffffffffffffffffffffffffffffff1673ffffffffffffffffffffffffffffffffffffffff161461122057600080fd5b50565b6000806002600084815260200190815260200160002060009054906101000a900473ffffffffffffffffffffffffffffffffffffffff169050600073ffffffffffffffffffffffffffffffffffffffff168173ffffffffffffffffffffffffffffffffffffffff1614156112cc576040517f08c379a00000000000000000000000000000000000000000000000000000000081526004016112c390613f8b565b60405180910390fd5b80915050919050565b60008073ffffffffffffffffffffffffffffffffffffffff168273ffffffffffffffffffffffffffffffffffffffff161415611346576040517f08c379a000000000000000000000000000000000000000000000000000000000815260040161133d90613f6b565b60405180910390fd5b600360008373ffffffffffffffffffffffffffffffffffffffff1673ffffffffffffffffffffffffffffffffffffffff168152602001908152602001600020549050919050565b611395612481565b73ffffffffffffffffffffffffffffffffffffffff166113b361172f565b73ffffffffffffffffffffffffffffffffffffffff1614611409576040517f08c379a00000000000000000000000000000000000000000000000000000000081526004016114009061402b565b60405180910390fd5b6114136000612af9565b565b61141d612481565b73ffffffffffffffffffffffffffffffffffffffff1661143b61172f565b73ffffffffffffffffffffffffffffffffffffffff1614611491576040517f08c379a00000000000000000000000000000000000000000000000000000000081526004016114889061402b565b60405180910390fd5b81600d826040516114a29190613d15565b908152602001604051809103902060008573ffffffffffffffffffffffffffffffffffffffff1673ffffffffffffffffffffffffffffffffffffffff16815260200190815260200160002081905550505050565b6000611502600861289d565b905090565b6000611511612481565b73ffffffffffffffffffffffffffffffffffffffff1661152f61172f565b73ffffffffffffffffffffffffffffffffffffffff1614611585576040517f08c379a000000000000000000000000000000000000000000000000000000000815260040161157c9061402b565b60405180910390fd5b61158f6008612887565b600061159b600861289d565b90506115a733826128ab565b6115b18185612a85565b60016011600083815260200190815260200160002060006101000a81548160ff02191690831515021790555060006040518060c001604052806115f4600861289d565b81526020018781526020018573ffffffffffffffffffffffffffffffffffffffff1681526020018573ffffffffffffffffffffffffffffffffffffffff168152602001438152602001428152509050806010600084815260200190815260200160002060008201518160000155602082015181600101908051906020019061167d9291906131b7565b5060408201518160020160006101000a81548173ffffffffffffffffffffffffffffffffffffffff021916908373ffffffffffffffffffffffffffffffffffffffff16021790555060608201518160030160006101000a81548173ffffffffffffffffffffffffffffffffffffffff021916908373ffffffffffffffffffffffffffffffffffffffff1602179055506080820151816004015560a0820151816005015590505081925050509392505050565b6000600760009054906101000a900473ffffffffffffffffffffffffffffffffffffffff16905090565b611761612481565b73ffffffffffffffffffffffffffffffffffffffff1661177f61172f565b73ffffffffffffffffffffffffffffffffffffffff16146117d5576040517f08c379a00000000000000000000000000000000000000000000000000000000081526004016117cc9061402b565b60405180910390fd5b80600c8190555050565b6117e761323d565b601060008381526020019081526020016000206040518060c00160405290816000820154815260200160018201805461181f9061439e565b80601f016020809104026020016040519081016040528092919081815260200182805461184b9061439e565b80156118985780601f1061186d57610100808354040283529160200191611898565b820191906000526020600020905b81548152906001019060200180831161187b57829003601f168201915b505050505081526020016002820160009054906101000a900473ffffffffffffffffffffffffffffffffffffffff1673ffffffffffffffffffffffffffffffffffffffff1673ffffffffffffffffffffffffffffffffffffffff1681526020016003820160009054906101000a900473ffffffffffffffffffffffffffffffffffffffff1673ffffffffffffffffffffffffffffffffffffffff1673ffffffffffffffffffffffffffffffffffffffff168152602001600482015481526020016005820154815250509050919050565b6060600180546119779061439e565b80601f01602080910402602001604051908101604052809291908181526020018280546119a39061439e565b80156119f05780601f106119c5576101008083540402835291602001916119f0565b820191906000526020600020905b8154815290600101906020018083116119d357829003601f168201915b5050505050905090565b6000611a066008612887565b6000611a12600861289d565b9050611a1e33826128ab565b611a288185612a85565b60006011600083815260200190815260200160002060006101000a81548160ff02191690831515021790555060006040518060c00160405280611a6b600861289d565b81526020018781526020018573ffffffffffffffffffffffffffffffffffffffff1681526020018573ffffffffffffffffffffffffffffffffffffffff1681526020014381526020014281525090508060106000848152602001908152602001600020600082015181600001556020820151816001019080519060200190611af49291906131b7565b5060408201518160020160006101000a81548173ffffffffffffffffffffffffffffffffffffffff021916908373ffffffffffffffffffffffffffffffffffffffff16021790555060608201518160030160006101000a81548173ffffffffffffffffffffffffffffffffffffffff021916908373ffffffffffffffffffffffffffffffffffffffff1602179055506080820151816004015560a0820151816005015590505081925050509392505050565b611bb8611bb1612481565b8383612bbf565b5050565b611bcd611bc7612481565b83612542565b611c0c576040517f08c379a0000000000000000000000000000000000000000000000000000000008152600401611c03906140ab565b60405180910390fd5b611c1884848484612d2c565b50505050565b6000826000805b600980549050811015611ce6578273ffffffffffffffffffffffffffffffffffffffff1660098281548110611c83577f4e487b7100000000000000000000000000000000000000000000000000000000600052603260045260246000fd5b9060005260206000200160009054906101000a900473ffffffffffffffffffffffffffffffffffffffff1673ffffffffffffffffffffffffffffffffffffffff161415611cd35760019150611ce6565b8080611cde90614401565b915050611c25565b5080611d27576040517f08c379a0000000000000000000000000000000000000000000000000000000008152600401611d1e906140cb565b60405180910390fd5b6000600a60008773ffffffffffffffffffffffffffffffffffffffff1673ffffffffffffffffffffffffffffffffffffffff16815260200190815260200160002054905060008111611d7857600080fd5b8573ffffffffffffffffffffffffffffffffffffffff166323b872dd3330846040518463ffffffff1660e01b8152600401611db593929190613d6b565b602060405180830381600087803b158015611dcf57600080fd5b505af1158015611de3573d6000803e3d6000fd5b505050506040513d601f19601f82011682018060405250810190611e079190613618565b50611e126008612887565b6000611e1e600861289d565b9050611e2a33826128ab565b611e348189612a85565b60006011600083815260200190815260200160002060006101000a81548160ff02191690831515021790555060006040518060c00160405280611e77600861289d565b81526020018b81526020018873ffffffffffffffffffffffffffffffffffffffff1681526020018873ffffffffffffffffffffffffffffffffffffffff1681526020014381526020014281525090508060106000848152602001908152602001600020600082015181600001556020820151816001019080519060200190611f009291906131b7565b5060408201518160020160006101000a81548173ffffffffffffffffffffffffffffffffffffffff021916908373ffffffffffffffffffffffffffffffffffffffff16021790555060608201518160030160006101000a81548173ffffffffffffffffffffffffffffffffffffffff021916908373ffffffffffffffffffffffffffffffffffffffff1602179055506080820151816004015560a082015181600501559050508195505050505050949350505050565b6060611fc182612415565b612000576040517f08c379a0000000000000000000000000000000000000000000000000000000008152600401611ff790613feb565b60405180910390fd5b60006006600084815260200190815260200160002080546120209061439e565b80601f016020809104026020016040519081016040528092919081815260200182805461204c9061439e565b80156120995780601f1061206e57610100808354040283529160200191612099565b820191906000526020600020905b81548152906001019060200180831161207c57829003601f168201915b5050505050905060006120aa612d88565b90506000815114156120c0578192505050612103565b6000825111156120f55780826040516020016120dd929190613d2c565b60405160208183030381529060405292505050612103565b6120fe84612d9f565b925050505b919050565b600f818051602081018201805184825260208301602085012081835280955050505050506000915054906101000a900460ff1681565b6000600560008473ffffffffffffffffffffffffffffffffffffffff1673ffffffffffffffffffffffffffffffffffffffff16815260200190815260200160002060008373ffffffffffffffffffffffffffffffffffffffff1673ffffffffffffffffffffffffffffffffffffffff16815260200190815260200160002060009054906101000a900460ff16905092915050565b6121da612481565b73ffffffffffffffffffffffffffffffffffffffff166121f861172f565b73ffffffffffffffffffffffffffffffffffffffff161461224e576040517f08c379a00000000000000000000000000000000000000000000000000000000081526004016122459061402b565b60405180910390fd5b600073ffffffffffffffffffffffffffffffffffffffff168173ffffffffffffffffffffffffffffffffffffffff1614156122be576040517f08c379a00000000000000000000000000000000000000000000000000000000081526004016122b590613e6b565b60405180910390fd5b6122c781612af9565b50565b6122d2612481565b73ffffffffffffffffffffffffffffffffffffffff166122f061172f565b73ffffffffffffffffffffffffffffffffffffffff1614612346576040517f08c379a000000000000000000000000000000000000000000000000000000000815260040161233d9061402b565b60405180910390fd5b81600e826040516123579190613d15565b908152602001604051809103902060008573ffffffffffffffffffffffffffffffffffffffff1673ffffffffffffffffffffffffffffffffffffffff16815260200190815260200160002081905550505050565b60007f01ffc9a7000000000000000000000000000000000000000000000000000000007bffffffffffffffffffffffffffffffffffffffffffffffffffffffff1916827bffffffffffffffffffffffffffffffffffffffffffffffffffffffff1916149050919050565b60008073ffffffffffffffffffffffffffffffffffffffff166002600084815260200190815260200160002060009054906101000a900473ffffffffffffffffffffffffffffffffffffffff1673ffffffffffffffffffffffffffffffffffffffff1614159050919050565b600033905090565b816004600083815260200190815260200160002060006101000a81548173ffffffffffffffffffffffffffffffffffffffff021916908373ffffffffffffffffffffffffffffffffffffffff160217905550808273ffffffffffffffffffffffffffffffffffffffff166124fc83611223565b73ffffffffffffffffffffffffffffffffffffffff167f8c5be1e5ebec7d5bd14f71427d1e84f3dd0314c0f7b2291e5b200ac8c7c3b92560405160405180910390a45050565b600061254d82612415565b61258c576040517f08c379a000000000000000000000000000000000000000000000000000000000815260040161258390613f2b565b60405180910390fd5b600061259783611223565b90508073ffffffffffffffffffffffffffffffffffffffff168473ffffffffffffffffffffffffffffffffffffffff16148061260657508373ffffffffffffffffffffffffffffffffffffffff166125ee846108ed565b73ffffffffffffffffffffffffffffffffffffffff16145b806126175750612616818561213e565b5b91505092915050565b8273ffffffffffffffffffffffffffffffffffffffff1661264082611223565b73ffffffffffffffffffffffffffffffffffffffff1614612696576040517f08c379a000000000000000000000000000000000000000000000000000000000815260040161268d90613e8b565b60405180910390fd5b600073ffffffffffffffffffffffffffffffffffffffff168273ffffffffffffffffffffffffffffffffffffffff161415612706576040517f08c379a00000000000000000000000000000000000000000000000000000000081526004016126fd90613ecb565b60405180910390fd5b612711838383612e46565b61271c600082612489565b6001600360008573ffffffffffffffffffffffffffffffffffffffff1673ffffffffffffffffffffffffffffffffffffffff168152602001908152602001600020600082825461276c919061428a565b925050819055506001600360008473ffffffffffffffffffffffffffffffffffffffff1673ffffffffffffffffffffffffffffffffffffffff16815260200190815260200160002060008282546127c39190614203565b92505081905550816002600083815260200190815260200160002060006101000a81548173ffffffffffffffffffffffffffffffffffffffff021916908373ffffffffffffffffffffffffffffffffffffffff160217905550808273ffffffffffffffffffffffffffffffffffffffff168473ffffffffffffffffffffffffffffffffffffffff167fddf252ad1be2c89b69c2b068fc378daa952ba7f163c4a11628f55a4df523b3ef60405160405180910390a4612882838383612e4b565b505050565b6001816000016000828254019250508190555050565b600081600001549050919050565b600073ffffffffffffffffffffffffffffffffffffffff168273ffffffffffffffffffffffffffffffffffffffff16141561291b576040517f08c379a000000000000000000000000000000000000000000000000000000000815260040161291290613fcb565b60405180910390fd5b61292481612415565b15612964576040517f08c379a000000000000000000000000000000000000000000000000000000000815260040161295b90613eab565b60405180910390fd5b61297060008383612e46565b6001600360008473ffffffffffffffffffffffffffffffffffffffff1673ffffffffffffffffffffffffffffffffffffffff16815260200190815260200160002060008282546129c09190614203565b92505081905550816002600083815260200190815260200160002060006101000a81548173ffffffffffffffffffffffffffffffffffffffff021916908373ffffffffffffffffffffffffffffffffffffffff160217905550808273ffffffffffffffffffffffffffffffffffffffff16600073ffffffffffffffffffffffffffffffffffffffff167fddf252ad1be2c89b69c2b068fc378daa952ba7f163c4a11628f55a4df523b3ef60405160405180910390a4612a8160008383612e4b565b5050565b612a8e82612415565b612acd576040517f08c379a0000000000000000000000000000000000000000000000000000000008152600401612ac490613fab565b60405180910390fd5b80600660008481526020019081526020016000209080519060200190612af49291906131b7565b505050565b6000600760009054906101000a900473ffffffffffffffffffffffffffffffffffffffff16905081600760006101000a81548173ffffffffffffffffffffffffffffffffffffffff021916908373ffffffffffffffffffffffffffffffffffffffff1602179055508173ffffffffffffffffffffffffffffffffffffffff168173ffffffffffffffffffffffffffffffffffffffff167f8be0079c531659141344cd1fd0a4f28419497f9722a3daafe3b4186f6b6457e060405160405180910390a35050565b8173ffffffffffffffffffffffffffffffffffffffff168373ffffffffffffffffffffffffffffffffffffffff161415612c2e576040517f08c379a0000000000000000000000000000000000000000000000000000000008152600401612c2590613eeb565b60405180910390fd5b80600560008573ffffffffffffffffffffffffffffffffffffffff1673ffffffffffffffffffffffffffffffffffffffff16815260200190815260200160002060008473ffffffffffffffffffffffffffffffffffffffff1673ffffffffffffffffffffffffffffffffffffffff16815260200190815260200160002060006101000a81548160ff0219169083151502179055508173ffffffffffffffffffffffffffffffffffffffff168373ffffffffffffffffffffffffffffffffffffffff167f17307eab39ab6107e8899845ad3d59bd9653f200f220920489ca2b5937696c3183604051612d1f9190613dee565b60405180910390a3505050565b612d37848484612620565b612d4384848484612e50565b612d82576040517f08c379a0000000000000000000000000000000000000000000000000000000008152600401612d7990613e2b565b60405180910390fd5b50505050565b606060405180602001604052806000815250905090565b6060612daa82612415565b612de9576040517f08c379a0000000000000000000000000000000000000000000000000000000008152600401612de09061406b565b60405180910390fd5b6000612df3612d88565b90506000815111612e135760405180602001604052806000815250612e3e565b80612e1d84612fe7565b604051602001612e2e929190613d2c565b6040516020818303038152906040525b915050919050565b505050565b505050565b6000612e718473ffffffffffffffffffffffffffffffffffffffff16613194565b15612fda578373ffffffffffffffffffffffffffffffffffffffff1663150b7a02612e9a612481565b8786866040518563ffffffff1660e01b8152600401612ebc9493929190613da2565b602060405180830381600087803b158015612ed657600080fd5b505af1925050508015612f0757506040513d601f19601f82011682018060405250810190612f04919061366a565b60015b612f8a573d8060008114612f37576040519150601f19603f3d011682016040523d82523d6000602084013e612f3c565b606091505b50600081511415612f82576040517f08c379a0000000000000000000000000000000000000000000000000000000008152600401612f7990613e2b565b60405180910390fd5b805181602001fd5b63150b7a0260e01b7bffffffffffffffffffffffffffffffffffffffffffffffffffffffff1916817bffffffffffffffffffffffffffffffffffffffffffffffffffffffff191614915050612fdf565b600190505b949350505050565b6060600082141561302f576040518060400160405280600181526020017f3000000000000000000000000000000000000000000000000000000000000000815250905061318f565b600082905060005b6000821461306157808061304a90614401565b915050600a8261305a9190614259565b9150613037565b60008167ffffffffffffffff8111156130a3577f4e487b7100000000000000000000000000000000000000000000000000000000600052604160045260246000fd5b6040519080825280601f01601f1916602001820160405280156130d55781602001600182028036833780820191505090505b5090505b60008514613188576001826130ee919061428a565b9150600a856130fd919061444a565b60306131099190614203565b60f81b818381518110613145577f4e487b7100000000000000000000000000000000000000000000000000000000600052603260045260246000fd5b60200101907effffffffffffffffffffffffffffffffffffffffffffffffffffffffffffff1916908160001a905350600a856131819190614259565b94506130d9565b8093505050505b919050565b6000808273ffffffffffffffffffffffffffffffffffffffff163b119050919050565b8280546131c39061439e565b90600052602060002090601f0160209004810192826131e5576000855561322c565b82601f106131fe57805160ff191683800117855561322c565b8280016001018555821561322c579182015b8281111561322b578251825591602001919060010190613210565b5b509050613239919061329f565b5090565b6040518060c001604052806000815260200160608152602001600073ffffffffffffffffffffffffffffffffffffffff168152602001600073ffffffffffffffffffffffffffffffffffffffff16815260200160008152602001600081525090565b5b808211156132b85760008160009055506001016132a0565b5090565b60006132cf6132ca8461414d565b614128565b9050828152602081018484840111156132e757600080fd5b6132f2848285614332565b509392505050565b600061330d6133088461417e565b614128565b90508281526020810184848401111561332557600080fd5b613330848285614332565b509392505050565b60008135905061334781614b2e565b92915050565b60008135905061335c81614b45565b92915050565b60008151905061337181614b45565b92915050565b60008135905061338681614b5c565b92915050565b60008151905061339b81614b5c565b92915050565b600082601f8301126133b257600080fd5b81356133c28482602086016132bc565b91505092915050565b600082601f8301126133dc57600080fd5b81356133ec8482602086016132fa565b91505092915050565b60008135905061340481614b73565b92915050565b60006020828403121561341c57600080fd5b600061342a84828501613338565b91505092915050565b6000806040838503121561344657600080fd5b600061345485828601613338565b925050602061346585828601613338565b9150509250929050565b60008060006060848603121561348457600080fd5b600061349286828701613338565b93505060206134a386828701613338565b92505060406134b4868287016133f5565b9150509250925092565b600080600080608085870312156134d457600080fd5b60006134e287828801613338565b94505060206134f387828801613338565b9350506040613504878288016133f5565b925050606085013567ffffffffffffffff81111561352157600080fd5b61352d878288016133a1565b91505092959194509250565b6000806040838503121561354c57600080fd5b600061355a85828601613338565b925050602061356b8582860161334d565b9150509250929050565b6000806040838503121561358857600080fd5b600061359685828601613338565b92505060206135a7858286016133f5565b9150509250929050565b6000806000606084860312156135c657600080fd5b60006135d486828701613338565b93505060206135e5868287016133f5565b925050604084013567ffffffffffffffff81111561360257600080fd5b61360e868287016133cb565b9150509250925092565b60006020828403121561362a57600080fd5b600061363884828501613362565b91505092915050565b60006020828403121561365357600080fd5b600061366184828501613377565b91505092915050565b60006020828403121561367c57600080fd5b600061368a8482850161338c565b91505092915050565b6000602082840312156136a557600080fd5b600082013567ffffffffffffffff8111156136bf57600080fd5b6136cb848285016133cb565b91505092915050565b6000806000606084860312156136e957600080fd5b600084013567ffffffffffffffff81111561370357600080fd5b61370f868287016133cb565b935050602084013567ffffffffffffffff81111561372c57600080fd5b613738868287016133cb565b925050604061374986828701613338565b9150509250925092565b6000806000806080858703121561376957600080fd5b600085013567ffffffffffffffff81111561378357600080fd5b61378f878288016133cb565b945050602085013567ffffffffffffffff8111156137ac57600080fd5b6137b8878288016133cb565b93505060406137c987828801613338565b92505060606137da87828801613338565b91505092959194509250565b6000602082840312156137f857600080fd5b6000613806848285016133f5565b91505092915050565b6000806040838503121561382257600080fd5b6000613830858286016133f5565b925050602083013567ffffffffffffffff81111561384d57600080fd5b613859858286016133cb565b9150509250929050565b61386c816142be565b82525050565b61387b816142be565b82525050565b61388a816142d0565b82525050565b600061389b826141af565b6138a581856141c5565b93506138b5818560208601614341565b6138be81614537565b840191505092915050565b60006138d4826141ba565b6138de81856141d6565b93506138ee818560208601614341565b6138f781614537565b840191505092915050565b600061390d826141ba565b61391781856141e7565b9350613927818560208601614341565b61393081614537565b840191505092915050565b6000613946826141ba565b61395081856141f8565b9350613960818560208601614341565b80840191505092915050565b60006139796032836141e7565b915061398482614548565b604082019050919050565b600061399c601b836141e7565b91506139a782614597565b602082019050919050565b60006139bf6026836141e7565b91506139ca826145c0565b604082019050919050565b60006139e26025836141e7565b91506139ed8261460f565b604082019050919050565b6000613a05601c836141e7565b9150613a108261465e565b602082019050919050565b6000613a286024836141e7565b9150613a3382614687565b604082019050919050565b6000613a4b6019836141e7565b9150613a56826146d6565b602082019050919050565b6000613a6e6023836141e7565b9150613a79826146ff565b604082019050919050565b6000613a91602c836141e7565b9150613a9c8261474e565b604082019050919050565b6000613ab46038836141e7565b9150613abf8261479d565b604082019050919050565b6000613ad7602a836141e7565b9150613ae2826147ec565b604082019050919050565b6000613afa6029836141e7565b9150613b058261483b565b604082019050919050565b6000613b1d602e836141e7565b9150613b288261488a565b604082019050919050565b6000613b406020836141e7565b9150613b4b826148d9565b602082019050919050565b6000613b636031836141e7565b9150613b6e82614902565b604082019050919050565b6000613b86602c836141e7565b9150613b9182614951565b604082019050919050565b6000613ba96020836141e7565b9150613bb4826149a0565b602082019050919050565b6000613bcc6021836141e7565b9150613bd7826149c9565b604082019050919050565b6000613bef602f836141e7565b9150613bfa82614a18565b604082019050919050565b6000613c126021836141e7565b9150613c1d82614a67565b604082019050919050565b6000613c356031836141e7565b9150613c4082614ab6565b604082019050919050565b6000613c586011836141e7565b9150613c6382614b05565b602082019050919050565b600060c083016000830151613c866000860182613cf7565b5060208301518482036020860152613c9e82826138c9565b9150506040830151613cb36040860182613863565b506060830151613cc66060860182613863565b506080830151613cd96080860182613cf7565b5060a0830151613cec60a0860182613cf7565b508091505092915050565b613d0081614328565b82525050565b613d0f81614328565b82525050565b6000613d21828461393b565b915081905092915050565b6000613d38828561393b565b9150613d44828461393b565b91508190509392505050565b6000602082019050613d656000830184613872565b92915050565b6000606082019050613d806000830186613872565b613d8d6020830185613872565b613d9a6040830184613d06565b949350505050565b6000608082019050613db76000830187613872565b613dc46020830186613872565b613dd16040830185613d06565b8181036060830152613de38184613890565b905095945050505050565b6000602082019050613e036000830184613881565b92915050565b60006020820190508181036000830152613e238184613902565b905092915050565b60006020820190508181036000830152613e448161396c565b9050919050565b60006020820190508181036000830152613e648161398f565b9050919050565b60006020820190508181036000830152613e84816139b2565b9050919050565b60006020820190508181036000830152613ea4816139d5565b9050919050565b60006020820190508181036000830152613ec4816139f8565b9050919050565b60006020820190508181036000830152613ee481613a1b565b9050919050565b60006020820190508181036000830152613f0481613a3e565b9050919050565b60006020820190508181036000830152613f2481613a61565b9050919050565b60006020820190508181036000830152613f4481613a84565b9050919050565b60006020820190508181036000830152613f6481613aa7565b9050919050565b60006020820190508181036000830152613f8481613aca565b9050919050565b60006020820190508181036000830152613fa481613aed565b9050919050565b60006020820190508181036000830152613fc481613b10565b9050919050565b60006020820190508181036000830152613fe481613b33565b9050919050565b6000602082019050818103600083015261400481613b56565b9050919050565b6000602082019050818103600083015261402481613b79565b9050919050565b6000602082019050818103600083015261404481613b9c565b9050919050565b6000602082019050818103600083015261406481613bbf565b9050919050565b6000602082019050818103600083015261408481613be2565b9050919050565b600060208201905081810360008301526140a481613c05565b9050919050565b600060208201905081810360008301526140c481613c28565b9050919050565b600060208201905081810360008301526140e481613c4b565b9050919050565b600060208201905081810360008301526141058184613c6e565b905092915050565b60006020820190506141226000830184613d06565b92915050565b6000614132614143565b905061413e82826143d0565b919050565b6000604051905090565b600067ffffffffffffffff82111561416857614167614508565b5b61417182614537565b9050602081019050919050565b600067ffffffffffffffff82111561419957614198614508565b5b6141a282614537565b9050602081019050919050565b600081519050919050565b600081519050919050565b600082825260208201905092915050565b600082825260208201905092915050565b600082825260208201905092915050565b600081905092915050565b600061420e82614328565b915061421983614328565b9250827fffffffffffffffffffffffffffffffffffffffffffffffffffffffffffffffff0382111561424e5761424d61447b565b5b828201905092915050565b600061426482614328565b915061426f83614328565b92508261427f5761427e6144aa565b5b828204905092915050565b600061429582614328565b91506142a083614328565b9250828210156142b3576142b261447b565b5b828203905092915050565b60006142c982614308565b9050919050565b60008115159050919050565b60007fffffffff0000000000000000000000000000000000000000000000000000000082169050919050565b600073ffffffffffffffffffffffffffffffffffffffff82169050919050565b6000819050919050565b82818337600083830152505050565b60005b8381101561435f578082015181840152602081019050614344565b8381111561436e576000848401525b50505050565b600061437f82614328565b915060008214156143935761439261447b565b5b600182039050919050565b600060028204905060018216806143b657607f821691505b602082108114156143ca576143c96144d9565b5b50919050565b6143d982614537565b810181811067ffffffffffffffff821117156143f8576143f7614508565b5b80604052505050565b600061440c82614328565b91507fffffffffffffffffffffffffffffffffffffffffffffffffffffffffffffffff82141561443f5761443e61447b565b5b600182019050919050565b600061445582614328565b915061446083614328565b9250826144705761446f6144aa565b5b828206905092915050565b7f4e487b7100000000000000000000000000000000000000000000000000000000600052601160045260246000fd5b7f4e487b7100000000000000000000000000000000000000000000000000000000600052601260045260246000fd5b7f4e487b7100000000000000000000000000000000000000000000000000000000600052602260045260246000fd5b7f4e487b7100000000000000000000000000000000000000000000000000000000600052604160045260246000fd5b6000601f19601f8301169050919050565b7f4552433732313a207472616e7366657220746f206e6f6e20455243373231526560008201527f63656976657220696d706c656d656e7465720000000000000000000000000000602082015250565b7f70726963652068617320746f206265206d6f7265207468616e20300000000000600082015250565b7f4f776e61626c653a206e6577206f776e657220697320746865207a65726f206160008201527f6464726573730000000000000000000000000000000000000000000000000000602082015250565b7f4552433732313a207472616e736665722066726f6d20696e636f72726563742060008201527f6f776e6572000000000000000000000000000000000000000000000000000000602082015250565b7f4552433732313a20746f6b656e20616c7265616479206d696e74656400000000600082015250565b7f4552433732313a207472616e7366657220746f20746865207a65726f2061646460008201527f7265737300000000000000000000000000000000000000000000000000000000602082015250565b7f4552433732313a20617070726f766520746f2063616c6c657200000000000000600082015250565b7f48617320746f206265206d6f7265207468616e2030206d696e74696e6720706f60008201527f7765720000000000000000000000000000000000000000000000000000000000602082015250565b7f4552433732313a206f70657261746f7220717565727920666f72206e6f6e657860008201527f697374656e7420746f6b656e0000000000000000000000000000000000000000602082015250565b7f4552433732313a20617070726f76652063616c6c6572206973206e6f74206f7760008201527f6e6572206e6f7220617070726f76656420666f7220616c6c0000000000000000602082015250565b7f4552433732313a2062616c616e636520717565727920666f7220746865207a6560008201527f726f206164647265737300000000000000000000000000000000000000000000602082015250565b7f4552433732313a206f776e657220717565727920666f72206e6f6e657869737460008201527f656e7420746f6b656e0000000000000000000000000000000000000000000000602082015250565b7f45524337323155524953746f726167653a2055524920736574206f66206e6f6e60008201527f6578697374656e7420746f6b656e000000000000000000000000000000000000602082015250565b7f4552433732313a206d696e7420746f20746865207a65726f2061646472657373600082015250565b7f45524337323155524953746f726167653a2055524920717565727920666f722060008201527f6e6f6e6578697374656e7420746f6b656e000000000000000000000000000000602082015250565b7f4552433732313a20617070726f76656420717565727920666f72206e6f6e657860008201527f697374656e7420746f6b656e0000000000000000000000000000000000000000602082015250565b7f4f776e61626c653a2063616c6c6572206973206e6f7420746865206f776e6572600082015250565b7f48617320746f206265206d6f7265207468616e2030207065726d697373696f6e60008201527f7300000000000000000000000000000000000000000000000000000000000000602082015250565b7f4552433732314d657461646174613a2055524920717565727920666f72206e6f60008201527f6e6578697374656e7420746f6b656e0000000000000000000000000000000000602082015250565b7f4552433732313a20617070726f76616c20746f2063757272656e74206f776e6560008201527f7200000000000000000000000000000000000000000000000000000000000000602082015250565b7f4552433732313a207472616e736665722063616c6c6572206973206e6f74206f60008201527f776e6572206e6f7220617070726f766564000000000000000000000000000000602082015250565b7f6e6f7420616363657074656420636f696e000000000000000000000000000000600082015250565b614b37816142be565b8114614b4257600080fd5b50565b614b4e816142d0565b8114614b5957600080fd5b50565b614b65816142dc565b8114614b7057600080fd5b50565b614b7c81614328565b8114614b8757600080fd5b5056fea2646970667358221220823c4e083659b90e0547e0e597005757f5b07060f88faffd4f302e44de0f69c264736f6c63430008030033",
  "immutableReferences": {},
  "source": "// SPDX-License-Identifier: MIT\npragma solidity ^0.8.0;\n\nimport \"@openzeppelin/contracts/token/ERC721/extensions/ERC721URIStorage.sol\";\nimport \"@openzeppelin/contracts/token/ERC20/IERC20.sol\";\nimport \"@openzeppelin/contracts/utils/Counters.sol\";\nimport \"@openzeppelin/contracts/access/Ownable.sol\";\n\n\ncontract Deccert is ERC721URIStorage,Ownable{\n\n    using Counters for Counters.Counter;\n\n    ///////////////-----Variable-------------///////////\n    Counters.Counter private _tokenIds;\n    address[] acceptedCoins;\n    mapping(address=>uint256) private COINS_PRICE;\n\n    string internal baseURI;\n    uint256 internal currentPrice=10**8 wei;\n \n    mapping(string=>mapping(address=>uint256)) private HAS_ALLOWANCE;\n    mapping(string=>mapping(address=>uint256)) private MINTING_POWER;\n\n    //check the string use by the user is not repeat\n    mapping(string=>bool)public _names;\n\n\n    constructor() ERC721(\"Deccert\", \"DECCERT\") {\n        \n    }\n\n    struct Certi {\n        uint256 tokenId;\n        string name;\n        address owner;\n        address previusOwner;\n        uint256 blockNumber;\n        uint256 time;\n    }\n    \n    mapping(uint256=>Certi) _certificados ;\n    mapping(uint256=>bool) SIGNED; \n\n\n//-----------------MODIFICADORES--------------------------//\n    modifier hasPermission(string memory _uri){\n        require(HAS_ALLOWANCE[_uri][msg.sender]>0,'Has to be more than 0 permissions');\n        HAS_ALLOWANCE[_uri][msg.sender]--;\n        _;\n    }\n\n    modifier hasMintingPower(string memory _uri){\n        require(MINTING_POWER[_uri][msg.sender]>0,'Has to be more than 0 minting power');\n        MINTING_POWER[_uri][msg.sender]--;\n        _;\n    }\n\n    modifier LegalCoin(address _coin){\n        bool pass=false;\n        for (uint256 index = 0; index < acceptedCoins.length; index++) {\n            if(acceptedCoins[index]==_coin){\n                pass=true;\n                break;\n            }\n        }\n        require(pass,'not accepted coin');\n        _;\n    }\n//-------------------MODIFICADORES--------------------------//\n\n\n    //Only the owner can call this function to mint NFT\n    function ManualMinting(\n        string memory _name,\n        string memory _uri,\n        address who\n        ) external onlyOwner returns(uint256){\n\n        //incrementamos en 1 el contador\n        _tokenIds.increment();\n\n        uint256 newItemId = _tokenIds.current();\n        _mint(msg.sender, newItemId);\n        _setTokenURI(newItemId, _uri);\n        SIGNED[newItemId]=true;\n\n        Certi memory newCerti= Certi(\n        _tokenIds.current(),//token id of Deccert certificate\n        _name,\n        who,\n        who,\n        block.number,\n        block.timestamp\n        );\n\n        _certificados[newItemId] = newCerti;\n\n        return newItemId;\n\n    }\n\n\n    //Owner can give user capability to mint an specific URI NFT\n    function PermissionMinting(\n        string memory _name,\n        string memory _uri,\n        address who) external hasMintingPower(_uri) returns(uint256){\n\n        _tokenIds.increment();\n\n        uint256 newItemId = _tokenIds.current();\n        _mint(msg.sender, newItemId);\n        _setTokenURI(newItemId, _uri);\n        SIGNED[newItemId]=true;\n\n        Certi memory newCerti= Certi(\n        _tokenIds.current(),//token id of Deccert certificate\n        _name,\n        who,\n        who,\n        block.number,\n        block.timestamp\n        );\n\n        _certificados[newItemId] = newCerti;\n\n        return newItemId;\n\n    }\n\n/////////////////////////////////////////////////////////////////////////////////////\n    \n    //Any user can call this function and mint their own certificate \n    function PreMinting(\n      string memory _name,\n      string memory _uri,\n      address who) external payable returns (uint256){\n\n        //incrementamos en 1 el contador\n        _tokenIds.increment();\n\n        uint256 newItemId = _tokenIds.current();\n        _mint(msg.sender, newItemId);\n        _setTokenURI(newItemId, _uri);\n        SIGNED[newItemId]=false;\n\n        Certi memory newCerti= Certi(\n        _tokenIds.current(),//token id of hashima\n        _name,\n        who,\n        who,\n        block.number,\n        block.timestamp\n        );\n\n        _certificados[newItemId] = newCerti;\n\n        return newItemId;\n\n    }\n\n    //Any user can call this function and mint their own certificate \n    function PreMintingERC20(\n      string memory _name,\n      string memory _uri,\n      address _token_address,\n      address who) external LegalCoin(_token_address)  returns (uint256){\n        \n        uint256 _price=COINS_PRICE[_token_address];\n        require(_price>0);\n        IERC20(_token_address).transferFrom(msg.sender, address(this), _price);\n        \n        _tokenIds.increment();\n\n        uint256 newItemId = _tokenIds.current();\n        _mint(msg.sender, newItemId);\n        _setTokenURI(newItemId, _uri);\n        SIGNED[newItemId]=false;\n\n        Certi memory newCerti= Certi(\n        _tokenIds.current(),//token id of hashima\n        _name,\n        who,\n        who,\n        block.number,\n        block.timestamp\n        );\n\n        _certificados[newItemId] = newCerti;\n\n        return newItemId;\n\n    }\n\n/////////////////////////////////////////////////////////////////////////////////////\n\n    //sender sign no signed NFT.\n    //hasPermission modifier rest 1 from its public mapping counting\n    function SignCertificate(\n        uint256 tokenId,\n        string memory _uri)public hasPermission(_uri){\n        SIGNED[tokenId]=true;\n    }\n\n    //function called by contract owner to give 'minting power' to backend \n    //and third partys.\n    function givePermission(\n        address _user,\n        uint256 _howMuch,\n        string memory _uri\n        )public onlyOwner{\n\n            HAS_ALLOWANCE[_uri][_user]=_howMuch;\n    }\n\n    function giveMintingPower(\n        address _user,\n        uint256 _howMuch,\n        string memory _uri\n        )public onlyOwner{\n\n            MINTING_POWER[_uri][_user]=_howMuch;\n    }\n\n \n\n    function addCoin(address coinAddress)external onlyOwner{\n        acceptedCoins.push(coinAddress);\n    }\n\n\n/////////////----SETTERS----//////////////\n    function setPrice(uint256 _newPrice)external onlyOwner{\n        currentPrice=_newPrice;\n    }\n\n    function setPriceERC20(address coin,uint256 _newPrice)external onlyOwner{\n        require(_newPrice>0,'price has to be more than 0');\n        for (uint256 index = 0; index < acceptedCoins.length; index++) {\n            \n            if(acceptedCoins[index]==coin){\n                COINS_PRICE[coin]=_newPrice;\n                break;\n            }\n        }\n        \n    }\n\n    function get(uint256 _index)public view returns(Certi memory){\n          return _certificados[_index];\n    }\n  \n    function check(uint256 _index)external view{\n          require(_certificados[_index].owner==msg.sender);\n    }\n\n\n    function getTotal()public view returns(uint256){\n        return(_tokenIds.current());\n    }\n\n    // function setBaseURI(string calldata newEntry)external onlyOwner{\n    //   baseURI=newEntry;\n    // }\n\n    // function tokenURI(uint256 tokenId) public view override returns (string memory) {\n    //     require(_exists(tokenId), \"URI query for nonexistent token\");\n\n    //    return string(abi.encodePacked(baseURI,Strings.toString(tokenId),\".json\"));\n\n    // }\n  \n}",
  "sourcePath": "/Users/aarontolentino/Documents/AcademiaCrypto/Deccert/contracts/Deccert.sol",
  "compiler": {
    "name": "solc",
    "version": "0.8.3+commit.8d00100c.Emscripten.clang"
  },
  "schemaVersion": "3.4.1",
  "updatedAt": "2022-07-24T21:25:50.294Z",
  "networkType": "ethereum",
  "devdoc": {
    "kind": "dev",
    "methods": {
      "approve(address,uint256)": {
        "details": "See {IERC721-approve}."
      },
      "balanceOf(address)": {
        "details": "See {IERC721-balanceOf}."
      },
      "getApproved(uint256)": {
        "details": "See {IERC721-getApproved}."
      },
      "isApprovedForAll(address,address)": {
        "details": "See {IERC721-isApprovedForAll}."
      },
      "name()": {
        "details": "See {IERC721Metadata-name}."
      },
      "owner()": {
        "details": "Returns the address of the current owner."
      },
      "ownerOf(uint256)": {
        "details": "See {IERC721-ownerOf}."
      },
      "renounceOwnership()": {
        "details": "Leaves the contract without owner. It will not be possible to call `onlyOwner` functions anymore. Can only be called by the current owner. NOTE: Renouncing ownership will leave the contract without an owner, thereby removing any functionality that is only available to the owner."
      },
      "safeTransferFrom(address,address,uint256)": {
        "details": "See {IERC721-safeTransferFrom}."
      },
      "safeTransferFrom(address,address,uint256,bytes)": {
        "details": "See {IERC721-safeTransferFrom}."
      },
      "setApprovalForAll(address,bool)": {
        "details": "See {IERC721-setApprovalForAll}."
      },
      "supportsInterface(bytes4)": {
        "details": "See {IERC165-supportsInterface}."
      },
      "symbol()": {
        "details": "See {IERC721Metadata-symbol}."
      },
      "tokenURI(uint256)": {
        "details": "See {IERC721Metadata-tokenURI}."
      },
      "transferFrom(address,address,uint256)": {
        "details": "See {IERC721-transferFrom}."
      },
      "transferOwnership(address)": {
        "details": "Transfers ownership of the contract to a new account (`newOwner`). Can only be called by the current owner."
      }
    },
    "version": 1
  },
  "userdoc": {
    "kind": "user",
    "methods": {},
    "version": 1
  }
}