{
  "contractName": "Deccert",
  "abi": [
    {
      "inputs": [],
      "stateMutability": "nonpayable",
      "type": "constructor"
    },
    {
      "anonymous": false,
      "inputs": [
        {
          "indexed": true,
          "internalType": "address",
          "name": "owner",
          "type": "address"
        },
        {
          "indexed": true,
          "internalType": "address",
          "name": "approved",
          "type": "address"
        },
        {
          "indexed": true,
          "internalType": "uint256",
          "name": "tokenId",
          "type": "uint256"
        }
      ],
      "name": "Approval",
      "type": "event"
    },
    {
      "anonymous": false,
      "inputs": [
        {
          "indexed": true,
          "internalType": "address",
          "name": "owner",
          "type": "address"
        },
        {
          "indexed": true,
          "internalType": "address",
          "name": "operator",
          "type": "address"
        },
        {
          "indexed": false,
          "internalType": "bool",
          "name": "approved",
          "type": "bool"
        }
      ],
      "name": "ApprovalForAll",
      "type": "event"
    },
    {
      "anonymous": false,
      "inputs": [
        {
          "indexed": true,
          "internalType": "address",
          "name": "previousOwner",
          "type": "address"
        },
        {
          "indexed": true,
          "internalType": "address",
          "name": "newOwner",
          "type": "address"
        }
      ],
      "name": "OwnershipTransferred",
      "type": "event"
    },
    {
      "anonymous": false,
      "inputs": [
        {
          "indexed": true,
          "internalType": "address",
          "name": "from",
          "type": "address"
        },
        {
          "indexed": true,
          "internalType": "address",
          "name": "to",
          "type": "address"
        },
        {
          "indexed": true,
          "internalType": "uint256",
          "name": "tokenId",
          "type": "uint256"
        }
      ],
      "name": "Transfer",
      "type": "event"
    },
    {
      "inputs": [
        {
          "internalType": "string",
          "name": "",
          "type": "string"
        }
      ],
      "name": "_names",
      "outputs": [
        {
          "internalType": "bool",
          "name": "",
          "type": "bool"
        }
      ],
      "stateMutability": "view",
      "type": "function",
      "constant": true
    },
    {
      "inputs": [
        {
          "internalType": "address",
          "name": "to",
          "type": "address"
        },
        {
          "internalType": "uint256",
          "name": "tokenId",
          "type": "uint256"
        }
      ],
      "name": "approve",
      "outputs": [],
      "stateMutability": "nonpayable",
      "type": "function"
    },
    {
      "inputs": [
        {
          "internalType": "address",
          "name": "owner",
          "type": "address"
        }
      ],
      "name": "balanceOf",
      "outputs": [
        {
          "internalType": "uint256",
          "name": "",
          "type": "uint256"
        }
      ],
      "stateMutability": "view",
      "type": "function",
      "constant": true
    },
    {
      "inputs": [
        {
          "internalType": "uint256",
          "name": "tokenId",
          "type": "uint256"
        }
      ],
      "name": "getApproved",
      "outputs": [
        {
          "internalType": "address",
          "name": "",
          "type": "address"
        }
      ],
      "stateMutability": "view",
      "type": "function",
      "constant": true
    },
    {
      "inputs": [
        {
          "internalType": "address",
          "name": "owner",
          "type": "address"
        },
        {
          "internalType": "address",
          "name": "operator",
          "type": "address"
        }
      ],
      "name": "isApprovedForAll",
      "outputs": [
        {
          "internalType": "bool",
          "name": "",
          "type": "bool"
        }
      ],
      "stateMutability": "view",
      "type": "function",
      "constant": true
    },
    {
      "inputs": [],
      "name": "name",
      "outputs": [
        {
          "internalType": "string",
          "name": "",
          "type": "string"
        }
      ],
      "stateMutability": "view",
      "type": "function",
      "constant": true
    },
    {
      "inputs": [],
      "name": "owner",
      "outputs": [
        {
          "internalType": "address",
          "name": "",
          "type": "address"
        }
      ],
      "stateMutability": "view",
      "type": "function",
      "constant": true
    },
    {
      "inputs": [
        {
          "internalType": "uint256",
          "name": "tokenId",
          "type": "uint256"
        }
      ],
      "name": "ownerOf",
      "outputs": [
        {
          "internalType": "address",
          "name": "",
          "type": "address"
        }
      ],
      "stateMutability": "view",
      "type": "function",
      "constant": true
    },
    {
      "inputs": [],
      "name": "renounceOwnership",
      "outputs": [],
      "stateMutability": "nonpayable",
      "type": "function"
    },
    {
      "inputs": [
        {
          "internalType": "address",
          "name": "from",
          "type": "address"
        },
        {
          "internalType": "address",
          "name": "to",
          "type": "address"
        },
        {
          "internalType": "uint256",
          "name": "tokenId",
          "type": "uint256"
        }
      ],
      "name": "safeTransferFrom",
      "outputs": [],
      "stateMutability": "nonpayable",
      "type": "function"
    },
    {
      "inputs": [
        {
          "internalType": "address",
          "name": "from",
          "type": "address"
        },
        {
          "internalType": "address",
          "name": "to",
          "type": "address"
        },
        {
          "internalType": "uint256",
          "name": "tokenId",
          "type": "uint256"
        },
        {
          "internalType": "bytes",
          "name": "_data",
          "type": "bytes"
        }
      ],
      "name": "safeTransferFrom",
      "outputs": [],
      "stateMutability": "nonpayable",
      "type": "function"
    },
    {
      "inputs": [
        {
          "internalType": "address",
          "name": "operator",
          "type": "address"
        },
        {
          "internalType": "bool",
          "name": "approved",
          "type": "bool"
        }
      ],
      "name": "setApprovalForAll",
      "outputs": [],
      "stateMutability": "nonpayable",
      "type": "function"
    },
    {
      "inputs": [
        {
          "internalType": "bytes4",
          "name": "interfaceId",
          "type": "bytes4"
        }
      ],
      "name": "supportsInterface",
      "outputs": [
        {
          "internalType": "bool",
          "name": "",
          "type": "bool"
        }
      ],
      "stateMutability": "view",
      "type": "function",
      "constant": true
    },
    {
      "inputs": [],
      "name": "symbol",
      "outputs": [
        {
          "internalType": "string",
          "name": "",
          "type": "string"
        }
      ],
      "stateMutability": "view",
      "type": "function",
      "constant": true
    },
    {
      "inputs": [
        {
          "internalType": "address",
          "name": "from",
          "type": "address"
        },
        {
          "internalType": "address",
          "name": "to",
          "type": "address"
        },
        {
          "internalType": "uint256",
          "name": "tokenId",
          "type": "uint256"
        }
      ],
      "name": "transferFrom",
      "outputs": [],
      "stateMutability": "nonpayable",
      "type": "function"
    },
    {
      "inputs": [
        {
          "internalType": "address",
          "name": "newOwner",
          "type": "address"
        }
      ],
      "name": "transferOwnership",
      "outputs": [],
      "stateMutability": "nonpayable",
      "type": "function"
    },
    {
      "inputs": [
        {
          "internalType": "string",
          "name": "_name",
          "type": "string"
        },
        {
          "internalType": "string",
          "name": "_class",
          "type": "string"
        },
        {
          "internalType": "address",
          "name": "who",
          "type": "address"
        }
      ],
      "name": "create",
      "outputs": [
        {
          "internalType": "uint256",
          "name": "",
          "type": "uint256"
        }
      ],
      "stateMutability": "nonpayable",
      "type": "function"
    },
    {
      "inputs": [
        {
          "internalType": "string",
          "name": "_name",
          "type": "string"
        },
        {
          "internalType": "string",
          "name": "_class",
          "type": "string"
        },
        {
          "internalType": "address",
          "name": "who",
          "type": "address"
        }
      ],
      "name": "createCertificate",
      "outputs": [
        {
          "internalType": "uint256",
          "name": "",
          "type": "uint256"
        }
      ],
      "stateMutability": "nonpayable",
      "type": "function"
    },
    {
      "inputs": [
        {
          "internalType": "address",
          "name": "who",
          "type": "address"
        },
        {
          "internalType": "uint256",
          "name": "amount",
          "type": "uint256"
        }
      ],
      "name": "giveAllowance",
      "outputs": [],
      "stateMutability": "nonpayable",
      "type": "function"
    },
    {
      "inputs": [
        {
          "internalType": "address",
          "name": "coinAddress",
          "type": "address"
        }
      ],
      "name": "addCoin",
      "outputs": [],
      "stateMutability": "nonpayable",
      "type": "function"
    },
    {
      "inputs": [
        {
          "internalType": "uint256",
          "name": "NFT_ID",
          "type": "uint256"
        }
      ],
      "name": "signNFT",
      "outputs": [],
      "stateMutability": "nonpayable",
      "type": "function"
    },
    {
      "inputs": [
        {
          "internalType": "uint256",
          "name": "_newPrice",
          "type": "uint256"
        }
      ],
      "name": "setPrice",
      "outputs": [],
      "stateMutability": "nonpayable",
      "type": "function"
    },
    {
      "inputs": [
        {
          "internalType": "address",
          "name": "coin",
          "type": "address"
        },
        {
          "internalType": "uint256",
          "name": "_newPrice",
          "type": "uint256"
        }
      ],
      "name": "setPriceERC20",
      "outputs": [],
      "stateMutability": "nonpayable",
      "type": "function"
    },
    {
      "inputs": [
        {
          "internalType": "uint256",
          "name": "_index",
          "type": "uint256"
        }
      ],
      "name": "get",
      "outputs": [
        {
          "components": [
            {
              "internalType": "uint256",
              "name": "tokenId",
              "type": "uint256"
            },
            {
              "internalType": "string",
              "name": "name",
              "type": "string"
            },
            {
              "internalType": "string",
              "name": "class",
              "type": "string"
            },
            {
              "internalType": "address",
              "name": "owner",
              "type": "address"
            },
            {
              "internalType": "bool",
              "name": "signed",
              "type": "bool"
            },
            {
              "internalType": "uint256",
              "name": "blockNumber",
              "type": "uint256"
            }
          ],
          "internalType": "struct Deccert.Certi",
          "name": "",
          "type": "tuple"
        }
      ],
      "stateMutability": "view",
      "type": "function",
      "constant": true
    },
    {
      "inputs": [
        {
          "internalType": "uint256",
          "name": "_index",
          "type": "uint256"
        }
      ],
      "name": "check",
      "outputs": [],
      "stateMutability": "view",
      "type": "function",
      "constant": true
    },
    {
      "inputs": [],
      "name": "dameTotal",
      "outputs": [
        {
          "internalType": "uint256",
          "name": "",
          "type": "uint256"
        }
      ],
      "stateMutability": "view",
      "type": "function",
      "constant": true
    },
    {
      "inputs": [
        {
          "internalType": "string",
          "name": "newEntry",
          "type": "string"
        }
      ],
      "name": "setBaseURI",
      "outputs": [],
      "stateMutability": "nonpayable",
      "type": "function"
    },
    {
      "inputs": [
        {
          "internalType": "uint256",
          "name": "tokenId",
          "type": "uint256"
        }
      ],
      "name": "tokenURI",
      "outputs": [
        {
          "internalType": "string",
          "name": "",
          "type": "string"
        }
      ],
      "stateMutability": "view",
      "type": "function",
      "constant": true
    },
    {
      "inputs": [
        {
          "internalType": "address",
          "name": "_signer",
          "type": "address"
        },
        {
          "internalType": "string",
          "name": "_message",
          "type": "string"
        },
        {
          "internalType": "bytes",
          "name": "signature",
          "type": "bytes"
        }
      ],
      "name": "verify",
      "outputs": [
        {
          "internalType": "bool",
          "name": "",
          "type": "bool"
        }
      ],
      "stateMutability": "pure",
      "type": "function",
      "constant": true
    },
    {
      "inputs": [
        {
          "internalType": "bytes32",
          "name": "_messageHash",
          "type": "bytes32"
        }
      ],
      "name": "getEthSignedMessageHash",
      "outputs": [
        {
          "internalType": "bytes32",
          "name": "",
          "type": "bytes32"
        }
      ],
      "stateMutability": "pure",
      "type": "function",
      "constant": true
    },
    {
      "inputs": [
        {
          "internalType": "string",
          "name": "_message",
          "type": "string"
        }
      ],
      "name": "getMessageHash",
      "outputs": [
        {
          "internalType": "bytes32",
          "name": "",
          "type": "bytes32"
        }
      ],
      "stateMutability": "pure",
      "type": "function",
      "constant": true
    },
    {
      "inputs": [
        {
          "internalType": "bytes32",
          "name": "_ethSignedMessageHash",
          "type": "bytes32"
        },
        {
          "internalType": "bytes",
          "name": "_signature",
          "type": "bytes"
        }
      ],
      "name": "recoverSigner",
      "outputs": [
        {
          "internalType": "address",
          "name": "",
          "type": "address"
        }
      ],
      "stateMutability": "pure",
      "type": "function",
      "constant": true
    },
    {
      "inputs": [
        {
          "internalType": "bytes",
          "name": "sig",
          "type": "bytes"
        }
      ],
      "name": "splitSignature",
      "outputs": [
        {
          "internalType": "bytes32",
          "name": "r",
          "type": "bytes32"
        },
        {
          "internalType": "bytes32",
          "name": "s",
          "type": "bytes32"
        },
        {
          "internalType": "uint8",
          "name": "v",
          "type": "uint8"
        }
      ],
      "stateMutability": "pure",
      "type": "function",
      "constant": true
    }
  ],
  "bytecode": "0x60806040526305f5e100600e553480156200001957600080fd5b506040518060400160405280600781526020017f44656363657274000000000000000000000000000000000000000000000000008152506040518060400160405280600781526020017f444543434552540000000000000000000000000000000000000000000000000081525081600090805190602001906200009e929190620001ae565b508060019080519060200190620000b7929190620001ae565b505050620000da620000ce620000e060201b60201c565b620000e860201b60201c565b620002c3565b600033905090565b6000600660009054906101000a900473ffffffffffffffffffffffffffffffffffffffff16905081600660006101000a81548173ffffffffffffffffffffffffffffffffffffffff021916908373ffffffffffffffffffffffffffffffffffffffff1602179055508173ffffffffffffffffffffffffffffffffffffffff168173ffffffffffffffffffffffffffffffffffffffff167f8be0079c531659141344cd1fd0a4f28419497f9722a3daafe3b4186f6b6457e060405160405180910390a35050565b828054620001bc906200025e565b90600052602060002090601f016020900481019282620001e057600085556200022c565b82601f10620001fb57805160ff19168380011785556200022c565b828001600101855582156200022c579182015b828111156200022b5782518255916020019190600101906200020e565b5b5090506200023b91906200023f565b5090565b5b808211156200025a57600081600090555060010162000240565b5090565b600060028204905060018216806200027757607f821691505b602082108114156200028e576200028d62000294565b5b50919050565b7f4e487b7100000000000000000000000000000000000000000000000000000000600052602260045260246000fd5b61453480620002d36000396000f3fe608060405234801561001057600080fd5b50600436106101fb5760003560e01c8063715018a61161011a578063a7bb5803116100ad578063d1760fac1161007c578063d1760fac146105f8578063df4596cd14610628578063e985e9c514610644578063f2fde38b14610674578063fa54080114610690576101fb565b8063a7bb58031461054a578063b446f3b21461057c578063b88d4fde146105ac578063c87b56dd146105c8576101fb565b8063958ff7fb116100e9578063958ff7fb146104c457806395d89b41146104e057806397aba7f9146104fe578063a22cb4651461052e576101fb565b8063715018a6146104505780638da5cb5b1461045a57806391b7f5ed146104785780639507d39a14610494576101fb565b806342842e0e116101925780635a9c2724116101615780635a9c2724146103a45780635f72f450146103d45780636352211e146103f057806370a0823114610420576101fb565b806342842e0e146103205780634f23eb861461033c57806355f804b31461036c578063571429ba14610388576101fb565b8063095ea7b3116101ce578063095ea7b31461029c57806316da8632146102b857806323b872dd146102d45780632dd34f0f146102f0576101fb565b806301ffc9a714610200578063058c2ef51461023057806306fdde031461024e578063081812fc1461026c575b600080fd5b61021a60048036038101906102159190612fb2565b6106c0565b604051610227919061379f565b60405180910390f35b6102386107a2565b6040516102459190613af5565b60405180910390f35b6102566107b3565b6040516102639190613851565b60405180910390f35b6102866004803603810190610281919061314a565b610845565b6040516102939190613738565b60405180910390f35b6102b660048036038101906102b19190612ef9565b6108ca565b005b6102d260048036038101906102cd9190612d0f565b6109e2565b005b6102ee60048036038101906102e99190612d74565b610ac4565b005b61030a60048036038101906103059190612e7a565b610b24565b604051610317919061379f565b60405180910390f35b61033a60048036038101906103359190612d74565b610b82565b005b610356600480360381019061035191906130cb565b610ba2565b6040516103639190613af5565b60405180910390f35b61038660048036038101906103819190613045565b610dc7565b005b6103a2600480360381019061039d9190612ef9565b610e59565b005b6103be60048036038101906103b991906130cb565b611026565b6040516103cb9190613af5565b60405180910390f35b6103ee60048036038101906103e9919061314a565b6111f1565b005b61040a6004803603810190610405919061314a565b611262565b6040516104179190613738565b60405180910390f35b61043a60048036038101906104359190612d0f565b611314565b6040516104479190613af5565b60405180910390f35b6104586113cc565b005b610462611454565b60405161046f9190613738565b60405180910390f35b610492600480360381019061048d919061314a565b61147e565b005b6104ae60048036038101906104a9919061314a565b611504565b6040516104bb9190613ad3565b60405180910390f35b6104de60048036038101906104d99190612ef9565b6116da565b005b6104e861179e565b6040516104f59190613851565b60405180910390f35b61051860048036038101906105139190612f5e565b611830565b6040516105259190613738565b60405180910390f35b61054860048036038101906105439190612e3e565b61189f565b005b610564600480360381019061055f9190613004565b6118b5565b604051610573939291906137d5565b60405180910390f35b6105966004803603810190610591919061308a565b61191d565b6040516105a391906137ba565b60405180910390f35b6105c660048036038101906105c19190612dc3565b61194d565b005b6105e260048036038101906105dd919061314a565b6119af565b6040516105ef9190613851565b60405180910390f35b610612600480360381019061060d919061308a565b611a2b565b60405161061f919061379f565b60405180910390f35b610642600480360381019061063d919061314a565b611a61565b005b61065e60048036038101906106599190612d38565b611b6a565b60405161066b919061379f565b60405180910390f35b61068e60048036038101906106899190612d0f565b611bfe565b005b6106aa60048036038101906106a59190612f35565b611cf6565b6040516106b791906137ba565b60405180910390f35b60007f80ac58cd000000000000000000000000000000000000000000000000000000007bffffffffffffffffffffffffffffffffffffffffffffffffffffffff1916827bffffffffffffffffffffffffffffffffffffffffffffffffffffffff1916148061078b57507f5b5e139f000000000000000000000000000000000000000000000000000000007bffffffffffffffffffffffffffffffffffffffffffffffffffffffff1916827bffffffffffffffffffffffffffffffffffffffffffffffffffffffff1916145b8061079b575061079a82611d26565b5b9050919050565b60006107ae6007611d90565b905090565b6060600080546107c290613db2565b80601f01602080910402602001604051908101604052809291908181526020018280546107ee90613db2565b801561083b5780601f106108105761010080835404028352916020019161083b565b820191906000526020600020905b81548152906001019060200180831161081e57829003601f168201915b5050505050905090565b600061085082611d9e565b61088f576040517f08c379a000000000000000000000000000000000000000000000000000000000815260040161088690613a13565b60405180910390fd5b6004600083815260200190815260200160002060009054906101000a900473ffffffffffffffffffffffffffffffffffffffff169050919050565b60006108d582611262565b90508073ffffffffffffffffffffffffffffffffffffffff168373ffffffffffffffffffffffffffffffffffffffff161415610946576040517f08c379a000000000000000000000000000000000000000000000000000000000815260040161093d90613a73565b60405180910390fd5b8073ffffffffffffffffffffffffffffffffffffffff16610965611e0a565b73ffffffffffffffffffffffffffffffffffffffff16148061099457506109938161098e611e0a565b611b6a565b5b6109d3576040517f08c379a00000000000000000000000000000000000000000000000000000000081526004016109ca90613993565b60405180910390fd5b6109dd8383611e12565b505050565b6109ea611e0a565b73ffffffffffffffffffffffffffffffffffffffff16610a08611454565b73ffffffffffffffffffffffffffffffffffffffff1614610a5e576040517f08c379a0000000000000000000000000000000000000000000000000000000008152600401610a5590613a33565b60405180910390fd5b600b819080600181540180825580915050600190039060005260206000200160009091909190916101000a81548173ffffffffffffffffffffffffffffffffffffffff021916908373ffffffffffffffffffffffffffffffffffffffff16021790555050565b610ad5610acf611e0a565b82611ecb565b610b14576040517f08c379a0000000000000000000000000000000000000000000000000000000008152600401610b0b90613a93565b60405180910390fd5b610b1f838383611fa9565b505050565b600080610b308461191d565b90506000610b3d82611cf6565b90508573ffffffffffffffffffffffffffffffffffffffff16610b608286611830565b73ffffffffffffffffffffffffffffffffffffffff1614925050509392505050565b610b9d8383836040518060200160405280600081525061194d565b505050565b600080600860003373ffffffffffffffffffffffffffffffffffffffff1673ffffffffffffffffffffffffffffffffffffffff1681526020019081526020016000205411610c25576040517f08c379a0000000000000000000000000000000000000000000000000000000008152600401610c1c90613a53565b60405180910390fd5b600860003373ffffffffffffffffffffffffffffffffffffffff1673ffffffffffffffffffffffffffffffffffffffff1681526020019081526020016000206000815480929190610c7590613d88565b9190505550610c846007612210565b6000610c906007611d90565b9050610c9c3382612226565b60006040518060c00160405280610cb36007611d90565b81526020018781526020018681526020018573ffffffffffffffffffffffffffffffffffffffff16815260200160001515815260200143815250905080600a6000848152602001908152602001600020600082015181600001556020820151816001019080519060200190610d29929190612a00565b506040820151816002019080519060200190610d46929190612a00565b5060608201518160030160006101000a81548173ffffffffffffffffffffffffffffffffffffffff021916908373ffffffffffffffffffffffffffffffffffffffff16021790555060808201518160030160146101000a81548160ff02191690831515021790555060a0820151816004015590505081925050509392505050565b610dcf611e0a565b73ffffffffffffffffffffffffffffffffffffffff16610ded611454565b73ffffffffffffffffffffffffffffffffffffffff1614610e43576040517f08c379a0000000000000000000000000000000000000000000000000000000008152600401610e3a90613a33565b60405180910390fd5b8181600d9190610e54929190612a86565b505050565b610e61611e0a565b73ffffffffffffffffffffffffffffffffffffffff16610e7f611454565b73ffffffffffffffffffffffffffffffffffffffff1614610ed5576040517f08c379a0000000000000000000000000000000000000000000000000000000008152600401610ecc90613a33565b60405180910390fd5b60008111610f18576040517f08c379a0000000000000000000000000000000000000000000000000000000008152600401610f0f906138b3565b60405180910390fd5b60005b600b80549050811015611021578273ffffffffffffffffffffffffffffffffffffffff16600b8281548110610f79577f4e487b7100000000000000000000000000000000000000000000000000000000600052603260045260246000fd5b9060005260206000200160009054906101000a900473ffffffffffffffffffffffffffffffffffffffff1673ffffffffffffffffffffffffffffffffffffffff16141561100e5781600c8281548110610ffb577f4e487b7100000000000000000000000000000000000000000000000000000000600052603260045260246000fd5b9060005260206000200181905550611021565b808061101990613e15565b915050610f1b565b505050565b6000611030611e0a565b73ffffffffffffffffffffffffffffffffffffffff1661104e611454565b73ffffffffffffffffffffffffffffffffffffffff16146110a4576040517f08c379a000000000000000000000000000000000000000000000000000000000815260040161109b90613a33565b60405180910390fd5b6110ae6007612210565b60006110ba6007611d90565b90506110c63382612226565b60006040518060c001604052806110dd6007611d90565b81526020018781526020018681526020018573ffffffffffffffffffffffffffffffffffffffff16815260200160001515815260200143815250905080600a6000848152602001908152602001600020600082015181600001556020820151816001019080519060200190611153929190612a00565b506040820151816002019080519060200190611170929190612a00565b5060608201518160030160006101000a81548173ffffffffffffffffffffffffffffffffffffffff021916908373ffffffffffffffffffffffffffffffffffffffff16021790555060808201518160030160146101000a81548160ff02191690831515021790555060a0820151816004015590505081925050509392505050565b3373ffffffffffffffffffffffffffffffffffffffff16600a600083815260200190815260200160002060030160009054906101000a900473ffffffffffffffffffffffffffffffffffffffff1673ffffffffffffffffffffffffffffffffffffffff161461125f57600080fd5b50565b6000806002600084815260200190815260200160002060009054906101000a900473ffffffffffffffffffffffffffffffffffffffff169050600073ffffffffffffffffffffffffffffffffffffffff168173ffffffffffffffffffffffffffffffffffffffff16141561130b576040517f08c379a0000000000000000000000000000000000000000000000000000000008152600401611302906139d3565b60405180910390fd5b80915050919050565b60008073ffffffffffffffffffffffffffffffffffffffff168273ffffffffffffffffffffffffffffffffffffffff161415611385576040517f08c379a000000000000000000000000000000000000000000000000000000000815260040161137c906139b3565b60405180910390fd5b600360008373ffffffffffffffffffffffffffffffffffffffff1673ffffffffffffffffffffffffffffffffffffffff168152602001908152602001600020549050919050565b6113d4611e0a565b73ffffffffffffffffffffffffffffffffffffffff166113f2611454565b73ffffffffffffffffffffffffffffffffffffffff1614611448576040517f08c379a000000000000000000000000000000000000000000000000000000000815260040161143f90613a33565b60405180910390fd5b6114526000612400565b565b6000600660009054906101000a900473ffffffffffffffffffffffffffffffffffffffff16905090565b611486611e0a565b73ffffffffffffffffffffffffffffffffffffffff166114a4611454565b73ffffffffffffffffffffffffffffffffffffffff16146114fa576040517f08c379a00000000000000000000000000000000000000000000000000000000081526004016114f190613a33565b60405180910390fd5b80600e8190555050565b61150c612b0c565b600a60008381526020019081526020016000206040518060c00160405290816000820154815260200160018201805461154490613db2565b80601f016020809104026020016040519081016040528092919081815260200182805461157090613db2565b80156115bd5780601f10611592576101008083540402835291602001916115bd565b820191906000526020600020905b8154815290600101906020018083116115a057829003601f168201915b505050505081526020016002820180546115d690613db2565b80601f016020809104026020016040519081016040528092919081815260200182805461160290613db2565b801561164f5780601f106116245761010080835404028352916020019161164f565b820191906000526020600020905b81548152906001019060200180831161163257829003601f168201915b505050505081526020016003820160009054906101000a900473ffffffffffffffffffffffffffffffffffffffff1673ffffffffffffffffffffffffffffffffffffffff1673ffffffffffffffffffffffffffffffffffffffff1681526020016003820160149054906101000a900460ff161515151581526020016004820154815250509050919050565b6116e2611e0a565b73ffffffffffffffffffffffffffffffffffffffff16611700611454565b73ffffffffffffffffffffffffffffffffffffffff1614611756576040517f08c379a000000000000000000000000000000000000000000000000000000000815260040161174d90613a33565b60405180910390fd5b80600860008473ffffffffffffffffffffffffffffffffffffffff1673ffffffffffffffffffffffffffffffffffffffff168152602001908152602001600020819055505050565b6060600180546117ad90613db2565b80601f01602080910402602001604051908101604052809291908181526020018280546117d990613db2565b80156118265780601f106117fb57610100808354040283529160200191611826565b820191906000526020600020905b81548152906001019060200180831161180957829003601f168201915b5050505050905090565b60008060008061183f856118b5565b92509250925060018682858560405160008152602001604052604051611868949392919061380c565b6020604051602081039080840390855afa15801561188a573d6000803e3d6000fd5b50505060206040510351935050505092915050565b6118b16118aa611e0a565b83836124c6565b5050565b600080600060418451146118fe576040517f08c379a00000000000000000000000000000000000000000000000000000000081526004016118f590613ab3565b60405180910390fd5b6020840151925060408401519150606084015160001a90509193909250565b60008160405160200161193091906136cc565b604051602081830303815290604052805190602001209050919050565b61195e611958611e0a565b83611ecb565b61199d576040517f08c379a000000000000000000000000000000000000000000000000000000000815260040161199490613a93565b60405180910390fd5b6119a984848484612633565b50505050565b60606119ba82611d9e565b6119f9576040517f08c379a00000000000000000000000000000000000000000000000000000000081526004016119f090613873565b60405180910390fd5b600d611a048361268f565b604051602001611a159291906136e3565b6040516020818303038152906040529050919050565b6009818051602081018201805184825260208301602085012081835280955050505050506000915054906101000a900460ff1681565b6000600860003373ffffffffffffffffffffffffffffffffffffffff1673ffffffffffffffffffffffffffffffffffffffff1681526020019081526020016000205411611ae3576040517f08c379a0000000000000000000000000000000000000000000000000000000008152600401611ada90613a53565b60405180910390fd5b600860003373ffffffffffffffffffffffffffffffffffffffff1673ffffffffffffffffffffffffffffffffffffffff1681526020019081526020016000206000815480929190611b3390613d88565b91905055506001600a600083815260200190815260200160002060030160146101000a81548160ff02191690831515021790555050565b6000600560008473ffffffffffffffffffffffffffffffffffffffff1673ffffffffffffffffffffffffffffffffffffffff16815260200190815260200160002060008373ffffffffffffffffffffffffffffffffffffffff1673ffffffffffffffffffffffffffffffffffffffff16815260200190815260200160002060009054906101000a900460ff16905092915050565b611c06611e0a565b73ffffffffffffffffffffffffffffffffffffffff16611c24611454565b73ffffffffffffffffffffffffffffffffffffffff1614611c7a576040517f08c379a0000000000000000000000000000000000000000000000000000000008152600401611c7190613a33565b60405180910390fd5b600073ffffffffffffffffffffffffffffffffffffffff168173ffffffffffffffffffffffffffffffffffffffff161415611cea576040517f08c379a0000000000000000000000000000000000000000000000000000000008152600401611ce1906138d3565b60405180910390fd5b611cf381612400565b50565b600081604051602001611d099190613712565b604051602081830303815290604052805190602001209050919050565b60007f01ffc9a7000000000000000000000000000000000000000000000000000000007bffffffffffffffffffffffffffffffffffffffffffffffffffffffff1916827bffffffffffffffffffffffffffffffffffffffffffffffffffffffff1916149050919050565b600081600001549050919050565b60008073ffffffffffffffffffffffffffffffffffffffff166002600084815260200190815260200160002060009054906101000a900473ffffffffffffffffffffffffffffffffffffffff1673ffffffffffffffffffffffffffffffffffffffff1614159050919050565b600033905090565b816004600083815260200190815260200160002060006101000a81548173ffffffffffffffffffffffffffffffffffffffff021916908373ffffffffffffffffffffffffffffffffffffffff160217905550808273ffffffffffffffffffffffffffffffffffffffff16611e8583611262565b73ffffffffffffffffffffffffffffffffffffffff167f8c5be1e5ebec7d5bd14f71427d1e84f3dd0314c0f7b2291e5b200ac8c7c3b92560405160405180910390a45050565b6000611ed682611d9e565b611f15576040517f08c379a0000000000000000000000000000000000000000000000000000000008152600401611f0c90613973565b60405180910390fd5b6000611f2083611262565b90508073ffffffffffffffffffffffffffffffffffffffff168473ffffffffffffffffffffffffffffffffffffffff161480611f8f57508373ffffffffffffffffffffffffffffffffffffffff16611f7784610845565b73ffffffffffffffffffffffffffffffffffffffff16145b80611fa05750611f9f8185611b6a565b5b91505092915050565b8273ffffffffffffffffffffffffffffffffffffffff16611fc982611262565b73ffffffffffffffffffffffffffffffffffffffff161461201f576040517f08c379a0000000000000000000000000000000000000000000000000000000008152600401612016906138f3565b60405180910390fd5b600073ffffffffffffffffffffffffffffffffffffffff168273ffffffffffffffffffffffffffffffffffffffff16141561208f576040517f08c379a000000000000000000000000000000000000000000000000000000000815260040161208690613933565b60405180910390fd5b61209a83838361283c565b6120a5600082611e12565b6001600360008573ffffffffffffffffffffffffffffffffffffffff1673ffffffffffffffffffffffffffffffffffffffff16815260200190815260200160002060008282546120f59190613c87565b925050819055506001600360008473ffffffffffffffffffffffffffffffffffffffff1673ffffffffffffffffffffffffffffffffffffffff168152602001908152602001600020600082825461214c9190613c00565b92505081905550816002600083815260200190815260200160002060006101000a81548173ffffffffffffffffffffffffffffffffffffffff021916908373ffffffffffffffffffffffffffffffffffffffff160217905550808273ffffffffffffffffffffffffffffffffffffffff168473ffffffffffffffffffffffffffffffffffffffff167fddf252ad1be2c89b69c2b068fc378daa952ba7f163c4a11628f55a4df523b3ef60405160405180910390a461220b838383612841565b505050565b6001816000016000828254019250508190555050565b600073ffffffffffffffffffffffffffffffffffffffff168273ffffffffffffffffffffffffffffffffffffffff161415612296576040517f08c379a000000000000000000000000000000000000000000000000000000000815260040161228d906139f3565b60405180910390fd5b61229f81611d9e565b156122df576040517f08c379a00000000000000000000000000000000000000000000000000000000081526004016122d690613913565b60405180910390fd5b6122eb6000838361283c565b6001600360008473ffffffffffffffffffffffffffffffffffffffff1673ffffffffffffffffffffffffffffffffffffffff168152602001908152602001600020600082825461233b9190613c00565b92505081905550816002600083815260200190815260200160002060006101000a81548173ffffffffffffffffffffffffffffffffffffffff021916908373ffffffffffffffffffffffffffffffffffffffff160217905550808273ffffffffffffffffffffffffffffffffffffffff16600073ffffffffffffffffffffffffffffffffffffffff167fddf252ad1be2c89b69c2b068fc378daa952ba7f163c4a11628f55a4df523b3ef60405160405180910390a46123fc60008383612841565b5050565b6000600660009054906101000a900473ffffffffffffffffffffffffffffffffffffffff16905081600660006101000a81548173ffffffffffffffffffffffffffffffffffffffff021916908373ffffffffffffffffffffffffffffffffffffffff1602179055508173ffffffffffffffffffffffffffffffffffffffff168173ffffffffffffffffffffffffffffffffffffffff167f8be0079c531659141344cd1fd0a4f28419497f9722a3daafe3b4186f6b6457e060405160405180910390a35050565b8173ffffffffffffffffffffffffffffffffffffffff168373ffffffffffffffffffffffffffffffffffffffff161415612535576040517f08c379a000000000000000000000000000000000000000000000000000000000815260040161252c90613953565b60405180910390fd5b80600560008573ffffffffffffffffffffffffffffffffffffffff1673ffffffffffffffffffffffffffffffffffffffff16815260200190815260200160002060008473ffffffffffffffffffffffffffffffffffffffff1673ffffffffffffffffffffffffffffffffffffffff16815260200190815260200160002060006101000a81548160ff0219169083151502179055508173ffffffffffffffffffffffffffffffffffffffff168373ffffffffffffffffffffffffffffffffffffffff167f17307eab39ab6107e8899845ad3d59bd9653f200f220920489ca2b5937696c3183604051612626919061379f565b60405180910390a3505050565b61263e848484611fa9565b61264a84848484612846565b612689576040517f08c379a000000000000000000000000000000000000000000000000000000000815260040161268090613893565b60405180910390fd5b50505050565b606060008214156126d7576040518060400160405280600181526020017f30000000000000000000000000000000000000000000000000000000000000008152509050612837565b600082905060005b600082146127095780806126f290613e15565b915050600a826127029190613c56565b91506126df565b60008167ffffffffffffffff81111561274b577f4e487b7100000000000000000000000000000000000000000000000000000000600052604160045260246000fd5b6040519080825280601f01601f19166020018201604052801561277d5781602001600182028036833780820191505090505b5090505b60008514612830576001826127969190613c87565b9150600a856127a59190613e68565b60306127b19190613c00565b60f81b8183815181106127ed577f4e487b7100000000000000000000000000000000000000000000000000000000600052603260045260246000fd5b60200101907effffffffffffffffffffffffffffffffffffffffffffffffffffffffffffff1916908160001a905350600a856128299190613c56565b9450612781565b8093505050505b919050565b505050565b505050565b60006128678473ffffffffffffffffffffffffffffffffffffffff166129dd565b156129d0578373ffffffffffffffffffffffffffffffffffffffff1663150b7a02612890611e0a565b8786866040518563ffffffff1660e01b81526004016128b29493929190613753565b602060405180830381600087803b1580156128cc57600080fd5b505af19250505080156128fd57506040513d601f19601f820116820180604052508101906128fa9190612fdb565b60015b612980573d806000811461292d576040519150601f19603f3d011682016040523d82523d6000602084013e612932565b606091505b50600081511415612978576040517f08c379a000000000000000000000000000000000000000000000000000000000815260040161296f90613893565b60405180910390fd5b805181602001fd5b63150b7a0260e01b7bffffffffffffffffffffffffffffffffffffffffffffffffffffffff1916817bffffffffffffffffffffffffffffffffffffffffffffffffffffffff1916149150506129d5565b600190505b949350505050565b6000808273ffffffffffffffffffffffffffffffffffffffff163b119050919050565b828054612a0c90613db2565b90600052602060002090601f016020900481019282612a2e5760008555612a75565b82601f10612a4757805160ff1916838001178555612a75565b82800160010185558215612a75579182015b82811115612a74578251825591602001919060010190612a59565b5b509050612a829190612b5a565b5090565b828054612a9290613db2565b90600052602060002090601f016020900481019282612ab45760008555612afb565b82601f10612acd57803560ff1916838001178555612afb565b82800160010185558215612afb579182015b82811115612afa578235825591602001919060010190612adf565b5b509050612b089190612b5a565b5090565b6040518060c00160405280600081526020016060815260200160608152602001600073ffffffffffffffffffffffffffffffffffffffff168152602001600015158152602001600081525090565b5b80821115612b73576000816000905550600101612b5b565b5090565b6000612b8a612b8584613b35565b613b10565b905082815260208101848484011115612ba257600080fd5b612bad848285613d46565b509392505050565b6000612bc8612bc384613b66565b613b10565b905082815260208101848484011115612be057600080fd5b612beb848285613d46565b509392505050565b600081359050612c028161448b565b92915050565b600081359050612c17816144a2565b92915050565b600081359050612c2c816144b9565b92915050565b600081359050612c41816144d0565b92915050565b600081519050612c56816144d0565b92915050565b600082601f830112612c6d57600080fd5b8135612c7d848260208601612b77565b91505092915050565b60008083601f840112612c9857600080fd5b8235905067ffffffffffffffff811115612cb157600080fd5b602083019150836001820283011115612cc957600080fd5b9250929050565b600082601f830112612ce157600080fd5b8135612cf1848260208601612bb5565b91505092915050565b600081359050612d09816144e7565b92915050565b600060208284031215612d2157600080fd5b6000612d2f84828501612bf3565b91505092915050565b60008060408385031215612d4b57600080fd5b6000612d5985828601612bf3565b9250506020612d6a85828601612bf3565b9150509250929050565b600080600060608486031215612d8957600080fd5b6000612d9786828701612bf3565b9350506020612da886828701612bf3565b9250506040612db986828701612cfa565b9150509250925092565b60008060008060808587031215612dd957600080fd5b6000612de787828801612bf3565b9450506020612df887828801612bf3565b9350506040612e0987828801612cfa565b925050606085013567ffffffffffffffff811115612e2657600080fd5b612e3287828801612c5c565b91505092959194509250565b60008060408385031215612e5157600080fd5b6000612e5f85828601612bf3565b9250506020612e7085828601612c08565b9150509250929050565b600080600060608486031215612e8f57600080fd5b6000612e9d86828701612bf3565b935050602084013567ffffffffffffffff811115612eba57600080fd5b612ec686828701612cd0565b925050604084013567ffffffffffffffff811115612ee357600080fd5b612eef86828701612c5c565b9150509250925092565b60008060408385031215612f0c57600080fd5b6000612f1a85828601612bf3565b9250506020612f2b85828601612cfa565b9150509250929050565b600060208284031215612f4757600080fd5b6000612f5584828501612c1d565b91505092915050565b60008060408385031215612f7157600080fd5b6000612f7f85828601612c1d565b925050602083013567ffffffffffffffff811115612f9c57600080fd5b612fa885828601612c5c565b9150509250929050565b600060208284031215612fc457600080fd5b6000612fd284828501612c32565b91505092915050565b600060208284031215612fed57600080fd5b6000612ffb84828501612c47565b91505092915050565b60006020828403121561301657600080fd5b600082013567ffffffffffffffff81111561303057600080fd5b61303c84828501612c5c565b91505092915050565b6000806020838503121561305857600080fd5b600083013567ffffffffffffffff81111561307257600080fd5b61307e85828601612c86565b92509250509250929050565b60006020828403121561309c57600080fd5b600082013567ffffffffffffffff8111156130b657600080fd5b6130c284828501612cd0565b91505092915050565b6000806000606084860312156130e057600080fd5b600084013567ffffffffffffffff8111156130fa57600080fd5b61310686828701612cd0565b935050602084013567ffffffffffffffff81111561312357600080fd5b61312f86828701612cd0565b925050604061314086828701612bf3565b9150509250925092565b60006020828403121561315c57600080fd5b600061316a84828501612cfa565b91505092915050565b61317c81613cbb565b82525050565b61318b81613cbb565b82525050565b61319a81613ccd565b82525050565b6131a981613ccd565b82525050565b6131b881613cd9565b82525050565b6131cf6131ca82613cd9565b613e5e565b82525050565b60006131e082613bac565b6131ea8185613bc2565b93506131fa818560208601613d55565b61320381613f55565b840191505092915050565b600061321982613bb7565b6132238185613bd3565b9350613233818560208601613d55565b61323c81613f55565b840191505092915050565b600061325282613bb7565b61325c8185613be4565b935061326c818560208601613d55565b61327581613f55565b840191505092915050565b600061328b82613bb7565b6132958185613bf5565b93506132a5818560208601613d55565b80840191505092915050565b600081546132be81613db2565b6132c88186613bf5565b945060018216600081146132e357600181146132f457613327565b60ff19831686528186019350613327565b6132fd85613b97565b60005b8381101561331f57815481890152600182019150602081019050613300565b838801955050505b50505092915050565b600061333d601c83613bf5565b915061334882613f66565b601c82019050919050565b6000613360601f83613be4565b915061336b82613f8f565b602082019050919050565b6000613383603283613be4565b915061338e82613fb8565b604082019050919050565b60006133a6601b83613be4565b91506133b182614007565b602082019050919050565b60006133c9602683613be4565b91506133d482614030565b604082019050919050565b60006133ec602583613be4565b91506133f78261407f565b604082019050919050565b600061340f601c83613be4565b915061341a826140ce565b602082019050919050565b6000613432602483613be4565b915061343d826140f7565b604082019050919050565b6000613455601983613be4565b915061346082614146565b602082019050919050565b6000613478602c83613be4565b91506134838261416f565b604082019050919050565b600061349b603883613be4565b91506134a6826141be565b604082019050919050565b60006134be602a83613be4565b91506134c98261420d565b604082019050919050565b60006134e1602983613be4565b91506134ec8261425c565b604082019050919050565b6000613504602083613be4565b915061350f826142ab565b602082019050919050565b6000613527602c83613be4565b9150613532826142d4565b604082019050919050565b600061354a600583613bf5565b915061355582614323565b600582019050919050565b600061356d602083613be4565b91506135788261434c565b602082019050919050565b6000613590602183613be4565b915061359b82614375565b604082019050919050565b60006135b3602183613be4565b91506135be826143c4565b604082019050919050565b60006135d6603183613be4565b91506135e182614413565b604082019050919050565b60006135f9601883613be4565b915061360482614462565b602082019050919050565b600060c083016000830151613627600086018261369f565b506020830151848203602086015261363f828261320e565b91505060408301518482036040860152613659828261320e565b915050606083015161366e6060860182613173565b5060808301516136816080860182613191565b5060a083015161369460a086018261369f565b508091505092915050565b6136a881613d2f565b82525050565b6136b781613d2f565b82525050565b6136c681613d39565b82525050565b60006136d88284613280565b915081905092915050565b60006136ef82856132b1565b91506136fb8284613280565b91506137068261353d565b91508190509392505050565b600061371d82613330565b915061372982846131be565b60208201915081905092915050565b600060208201905061374d6000830184613182565b92915050565b60006080820190506137686000830187613182565b6137756020830186613182565b61378260408301856136ae565b818103606083015261379481846131d5565b905095945050505050565b60006020820190506137b460008301846131a0565b92915050565b60006020820190506137cf60008301846131af565b92915050565b60006060820190506137ea60008301866131af565b6137f760208301856131af565b61380460408301846136bd565b949350505050565b600060808201905061382160008301876131af565b61382e60208301866136bd565b61383b60408301856131af565b61384860608301846131af565b95945050505050565b6000602082019050818103600083015261386b8184613247565b905092915050565b6000602082019050818103600083015261388c81613353565b9050919050565b600060208201905081810360008301526138ac81613376565b9050919050565b600060208201905081810360008301526138cc81613399565b9050919050565b600060208201905081810360008301526138ec816133bc565b9050919050565b6000602082019050818103600083015261390c816133df565b9050919050565b6000602082019050818103600083015261392c81613402565b9050919050565b6000602082019050818103600083015261394c81613425565b9050919050565b6000602082019050818103600083015261396c81613448565b9050919050565b6000602082019050818103600083015261398c8161346b565b9050919050565b600060208201905081810360008301526139ac8161348e565b9050919050565b600060208201905081810360008301526139cc816134b1565b9050919050565b600060208201905081810360008301526139ec816134d4565b9050919050565b60006020820190508181036000830152613a0c816134f7565b9050919050565b60006020820190508181036000830152613a2c8161351a565b9050919050565b60006020820190508181036000830152613a4c81613560565b9050919050565b60006020820190508181036000830152613a6c81613583565b9050919050565b60006020820190508181036000830152613a8c816135a6565b9050919050565b60006020820190508181036000830152613aac816135c9565b9050919050565b60006020820190508181036000830152613acc816135ec565b9050919050565b60006020820190508181036000830152613aed818461360f565b905092915050565b6000602082019050613b0a60008301846136ae565b92915050565b6000613b1a613b2b565b9050613b268282613de4565b919050565b6000604051905090565b600067ffffffffffffffff821115613b5057613b4f613f26565b5b613b5982613f55565b9050602081019050919050565b600067ffffffffffffffff821115613b8157613b80613f26565b5b613b8a82613f55565b9050602081019050919050565b60008190508160005260206000209050919050565b600081519050919050565b600081519050919050565b600082825260208201905092915050565b600082825260208201905092915050565b600082825260208201905092915050565b600081905092915050565b6000613c0b82613d2f565b9150613c1683613d2f565b9250827fffffffffffffffffffffffffffffffffffffffffffffffffffffffffffffffff03821115613c4b57613c4a613e99565b5b828201905092915050565b6000613c6182613d2f565b9150613c6c83613d2f565b925082613c7c57613c7b613ec8565b5b828204905092915050565b6000613c9282613d2f565b9150613c9d83613d2f565b925082821015613cb057613caf613e99565b5b828203905092915050565b6000613cc682613d0f565b9050919050565b60008115159050919050565b6000819050919050565b60007fffffffff0000000000000000000000000000000000000000000000000000000082169050919050565b600073ffffffffffffffffffffffffffffffffffffffff82169050919050565b6000819050919050565b600060ff82169050919050565b82818337600083830152505050565b60005b83811015613d73578082015181840152602081019050613d58565b83811115613d82576000848401525b50505050565b6000613d9382613d2f565b91506000821415613da757613da6613e99565b5b600182039050919050565b60006002820490506001821680613dca57607f821691505b60208210811415613dde57613ddd613ef7565b5b50919050565b613ded82613f55565b810181811067ffffffffffffffff82111715613e0c57613e0b613f26565b5b80604052505050565b6000613e2082613d2f565b91507fffffffffffffffffffffffffffffffffffffffffffffffffffffffffffffffff821415613e5357613e52613e99565b5b600182019050919050565b6000819050919050565b6000613e7382613d2f565b9150613e7e83613d2f565b925082613e8e57613e8d613ec8565b5b828206905092915050565b7f4e487b7100000000000000000000000000000000000000000000000000000000600052601160045260246000fd5b7f4e487b7100000000000000000000000000000000000000000000000000000000600052601260045260246000fd5b7f4e487b7100000000000000000000000000000000000000000000000000000000600052602260045260246000fd5b7f4e487b7100000000000000000000000000000000000000000000000000000000600052604160045260246000fd5b6000601f19601f8301169050919050565b7f19457468657265756d205369676e6564204d6573736167653a0a333200000000600082015250565b7f55524920717565727920666f72206e6f6e6578697374656e7420746f6b656e00600082015250565b7f4552433732313a207472616e7366657220746f206e6f6e20455243373231526560008201527f63656976657220696d706c656d656e7465720000000000000000000000000000602082015250565b7f70726963652068617320746f206265206d6f7265207468616e20300000000000600082015250565b7f4f776e61626c653a206e6577206f776e657220697320746865207a65726f206160008201527f6464726573730000000000000000000000000000000000000000000000000000602082015250565b7f4552433732313a207472616e736665722066726f6d20696e636f72726563742060008201527f6f776e6572000000000000000000000000000000000000000000000000000000602082015250565b7f4552433732313a20746f6b656e20616c7265616479206d696e74656400000000600082015250565b7f4552433732313a207472616e7366657220746f20746865207a65726f2061646460008201527f7265737300000000000000000000000000000000000000000000000000000000602082015250565b7f4552433732313a20617070726f766520746f2063616c6c657200000000000000600082015250565b7f4552433732313a206f70657261746f7220717565727920666f72206e6f6e657860008201527f697374656e7420746f6b656e0000000000000000000000000000000000000000602082015250565b7f4552433732313a20617070726f76652063616c6c6572206973206e6f74206f7760008201527f6e6572206e6f7220617070726f76656420666f7220616c6c0000000000000000602082015250565b7f4552433732313a2062616c616e636520717565727920666f7220746865207a6560008201527f726f206164647265737300000000000000000000000000000000000000000000602082015250565b7f4552433732313a206f776e657220717565727920666f72206e6f6e657869737460008201527f656e7420746f6b656e0000000000000000000000000000000000000000000000602082015250565b7f4552433732313a206d696e7420746f20746865207a65726f2061646472657373600082015250565b7f4552433732313a20617070726f76656420717565727920666f72206e6f6e657860008201527f697374656e7420746f6b656e0000000000000000000000000000000000000000602082015250565b7f2e6a736f6e000000000000000000000000000000000000000000000000000000600082015250565b7f4f776e61626c653a2063616c6c6572206973206e6f7420746865206f776e6572600082015250565b7f48617320746f206265206d6f7265207468616e2030207065726d697373696f6e60008201527f7300000000000000000000000000000000000000000000000000000000000000602082015250565b7f4552433732313a20617070726f76616c20746f2063757272656e74206f776e6560008201527f7200000000000000000000000000000000000000000000000000000000000000602082015250565b7f4552433732313a207472616e736665722063616c6c6572206973206e6f74206f60008201527f776e6572206e6f7220617070726f766564000000000000000000000000000000602082015250565b7f696e76616c6964207369676e6174757265206c656e6774680000000000000000600082015250565b61449481613cbb565b811461449f57600080fd5b50565b6144ab81613ccd565b81146144b657600080fd5b50565b6144c281613cd9565b81146144cd57600080fd5b50565b6144d981613ce3565b81146144e457600080fd5b50565b6144f081613d2f565b81146144fb57600080fd5b5056fea2646970667358221220084205861219f7470e6526aa86de3c238f943f03535ae7eeb1bb7694acd89cde64736f6c63430008030033",
  "immutableReferences": {},
  "source": "// SPDX-License-Identifier: MIT\npragma solidity ^0.8.0;\n\nimport \"@openzeppelin/contracts/token/ERC721/ERC721.sol\";\n// import \"@openzeppelin/contracts/token/ERC721/extensions/ERC721UriStorage.sol\";\nimport \"@openzeppelin/contracts/utils/Counters.sol\";\nimport \"@openzeppelin/contracts/access/Ownable.sol\";\n\n\ncontract Deccert is ERC721,Ownable{\n\n    using Counters for Counters.Counter;\n\n    Counters.Counter private _tokenIds;\n \n    mapping(address=>uint256) private hasAllowance;\n    //check the string use by the user is not repeat\n    mapping(string=>bool)public _names;\n\n\n    constructor() ERC721(\"Deccert\", \"DECCERT\") {}\n\n    struct Certi {\n        uint256 tokenId;\n        string name;\n        string class;\n        address owner;\n        bool signed;\n        uint256 blockNumber;\n    }\n\n\n    \n    mapping(uint256=>Certi) _certificados ;\n    address[] acceptedCoins;\n    uint256[] priceCoins;\n\n    string internal baseURI;\n    uint256 internal currentPrice=10**8 wei;\n\n    //MODIFICADORES\n    modifier canDoIt(){\n        require(hasAllowance[msg.sender]>0,'Has to be more than 0 permissions');\n        hasAllowance[msg.sender]--;\n        _;\n    }\n\n    function create(\n      string memory _name,\n      string memory _class,\n      address who) external onlyOwner returns(uint256){\n\n      //incrementamos en 1 el contador\n      _tokenIds.increment();\n\n      uint256 newItemId = _tokenIds.current();\n      _mint(msg.sender, newItemId);\n    \n      Certi memory newCerti= Certi(\n      _tokenIds.current(),//token id of hashima\n      _name,\n      _class,\n      who,\n      false,\n      block.number);\n\n      _certificados[newItemId] = newCerti;\n\n      return newItemId;\n\n    }\n\n    function createCertificate(\n      string memory _name,\n      string memory _class,\n      address who) external canDoIt returns (uint256){\n\n      //incrementamos en 1 el contador\n      _tokenIds.increment();\n\n      uint256 newItemId = _tokenIds.current();\n      _mint(msg.sender, newItemId);\n\n\n      Certi memory newCerti= Certi(\n      _tokenIds.current(),//token id of hashima\n      _name,\n      _class,\n      who,\n      false,\n      block.number);\n\n      _certificados[newItemId] = newCerti;\n\n      return newItemId;\n\n    }\n\n\n   function giveAllowance(address who,uint256 amount)external onlyOwner{\n     hasAllowance[who]=amount;\n  }\n   \n    function addCoin(address coinAddress)external onlyOwner{\n        acceptedCoins.push(coinAddress);\n    }\n\n    function signNFT(uint256 NFT_ID)external canDoIt\n    {\n        _certificados[NFT_ID].signed=true;\n    }\n  \n    function setPrice(uint256 _newPrice)external onlyOwner{\n        currentPrice=_newPrice;\n    }\n\n    function setPriceERC20(address coin,uint256 _newPrice)external onlyOwner{\n        require(_newPrice>0,'price has to be more than 0');\n        for (uint256 index = 0; index < acceptedCoins.length; index++) {\n            \n            if(acceptedCoins[index]==coin){\n                priceCoins[index]=_newPrice;\n                break;\n            }\n        }\n        \n    }\n    function get(uint256 _index)public view returns(Certi memory){\n          return _certificados[_index];\n    }\n  \n    function check(uint256 _index)external view{\n          require(_certificados[_index].owner==msg.sender);\n    }\n\n\n    function dameTotal()public view returns(uint256){\n        return(_tokenIds.current());\n    }\n\n    function setBaseURI(string calldata newEntry)external onlyOwner{\n      baseURI=newEntry;\n    }\n\n    function tokenURI(uint256 tokenId) public view override returns (string memory) {\n        require(_exists(tokenId), \"URI query for nonexistent token\");\n\n       return string(abi.encodePacked(baseURI,Strings.toString(tokenId),\".json\"));\n\n    }\n\n    //Verificacion\n\n    function verify(\n        address _signer,\n        string memory _message,   \n        bytes memory signature\n    ) public pure returns (bool) {\n        bytes32 messageHash = getMessageHash(_message);\n        bytes32 ethSignedMessageHash = getEthSignedMessageHash(messageHash);\n\n        return recoverSigner(ethSignedMessageHash, signature) == _signer;\n    }\n\n    function getEthSignedMessageHash(bytes32 _messageHash)\n        public\n        pure\n        returns (bytes32)\n    {\n        /*\n        Signature is produced by signing a keccak256 hash with the following format:\n        \"\\x19Ethereum Signed Message\\n\" + len(msg) + msg\n        */\n        return\n            keccak256(\n                abi.encodePacked(\"\\x19Ethereum Signed Message:\\n32\", _messageHash)\n            );\n    }\n\n    function getMessageHash(string memory _message\n    ) public pure returns (bytes32) {\n        return keccak256(abi.encodePacked(_message));\n    }\n\n\n    function recoverSigner(bytes32 _ethSignedMessageHash, bytes memory _signature)\n        public\n        pure\n        returns (address)\n    {\n        (bytes32 r, bytes32 s, uint8 v) = splitSignature(_signature);\n\n        return ecrecover(_ethSignedMessageHash, v, r, s);\n    }\n\n       function splitSignature(bytes memory sig)\n        public\n        pure\n        returns (\n            bytes32 r,\n            bytes32 s,\n            uint8 v\n        )\n    {\n        require(sig.length == 65, \"invalid signature length\");\n\n        assembly {\n           \n            r := mload(add(sig, 32))\n            // second 32 bytes\n            s := mload(add(sig, 64))\n            // final byte (first byte of the next 32 bytes)\n            v := byte(0, mload(add(sig, 96)))\n        }\n\n        // implicitly return (r, s, v)\n    }\n\n}",
  "sourcePath": "/Users/aarontolentino/Documents/AcademiaCrypto/Deccert/contracts/Deccert.sol",
  "compiler": {
    "name": "solc",
    "version": "0.8.3+commit.8d00100c.Emscripten.clang"
  },
  "schemaVersion": "3.4.1",
  "updatedAt": "2022-06-07T03:17:14.582Z",
  "networkType": "ethereum",
  "devdoc": {
    "kind": "dev",
    "methods": {
      "approve(address,uint256)": {
        "details": "See {IERC721-approve}."
      },
      "balanceOf(address)": {
        "details": "See {IERC721-balanceOf}."
      },
      "getApproved(uint256)": {
        "details": "See {IERC721-getApproved}."
      },
      "isApprovedForAll(address,address)": {
        "details": "See {IERC721-isApprovedForAll}."
      },
      "name()": {
        "details": "See {IERC721Metadata-name}."
      },
      "owner()": {
        "details": "Returns the address of the current owner."
      },
      "ownerOf(uint256)": {
        "details": "See {IERC721-ownerOf}."
      },
      "renounceOwnership()": {
        "details": "Leaves the contract without owner. It will not be possible to call `onlyOwner` functions anymore. Can only be called by the current owner. NOTE: Renouncing ownership will leave the contract without an owner, thereby removing any functionality that is only available to the owner."
      },
      "safeTransferFrom(address,address,uint256)": {
        "details": "See {IERC721-safeTransferFrom}."
      },
      "safeTransferFrom(address,address,uint256,bytes)": {
        "details": "See {IERC721-safeTransferFrom}."
      },
      "setApprovalForAll(address,bool)": {
        "details": "See {IERC721-setApprovalForAll}."
      },
      "supportsInterface(bytes4)": {
        "details": "See {IERC165-supportsInterface}."
      },
      "symbol()": {
        "details": "See {IERC721Metadata-symbol}."
      },
      "tokenURI(uint256)": {
        "details": "See {IERC721Metadata-tokenURI}."
      },
      "transferFrom(address,address,uint256)": {
        "details": "See {IERC721-transferFrom}."
      },
      "transferOwnership(address)": {
        "details": "Transfers ownership of the contract to a new account (`newOwner`). Can only be called by the current owner."
      }
    },
    "version": 1
  },
  "userdoc": {
    "kind": "user",
    "methods": {},
    "version": 1
  }
}