{
  "contractName": "Eddi",
  "abi": [
    {
      "inputs": [
        {
          "internalType": "contract Deccert",
          "name": "deccert_contract",
          "type": "address"
        }
      ],
      "stateMutability": "nonpayable",
      "type": "constructor"
    },
    {
      "anonymous": false,
      "inputs": [
        {
          "indexed": true,
          "internalType": "address",
          "name": "owner",
          "type": "address"
        },
        {
          "indexed": true,
          "internalType": "address",
          "name": "spender",
          "type": "address"
        },
        {
          "indexed": false,
          "internalType": "uint256",
          "name": "value",
          "type": "uint256"
        }
      ],
      "name": "Approval",
      "type": "event"
    },
    {
      "anonymous": false,
      "inputs": [
        {
          "indexed": true,
          "internalType": "address",
          "name": "previousOwner",
          "type": "address"
        },
        {
          "indexed": true,
          "internalType": "address",
          "name": "newOwner",
          "type": "address"
        }
      ],
      "name": "OwnershipTransferred",
      "type": "event"
    },
    {
      "anonymous": false,
      "inputs": [
        {
          "indexed": true,
          "internalType": "address",
          "name": "from",
          "type": "address"
        },
        {
          "indexed": true,
          "internalType": "address",
          "name": "to",
          "type": "address"
        },
        {
          "indexed": false,
          "internalType": "uint256",
          "name": "value",
          "type": "uint256"
        }
      ],
      "name": "Transfer",
      "type": "event"
    },
    {
      "inputs": [],
      "name": "REWARD_PER_BLOCK",
      "outputs": [
        {
          "internalType": "uint256",
          "name": "",
          "type": "uint256"
        }
      ],
      "stateMutability": "view",
      "type": "function"
    },
    {
      "inputs": [
        {
          "internalType": "string",
          "name": "",
          "type": "string"
        }
      ],
      "name": "_names",
      "outputs": [
        {
          "internalType": "bool",
          "name": "",
          "type": "bool"
        }
      ],
      "stateMutability": "view",
      "type": "function"
    },
    {
      "inputs": [
        {
          "internalType": "address",
          "name": "owner",
          "type": "address"
        },
        {
          "internalType": "address",
          "name": "spender",
          "type": "address"
        }
      ],
      "name": "allowance",
      "outputs": [
        {
          "internalType": "uint256",
          "name": "",
          "type": "uint256"
        }
      ],
      "stateMutability": "view",
      "type": "function"
    },
    {
      "inputs": [
        {
          "internalType": "address",
          "name": "spender",
          "type": "address"
        },
        {
          "internalType": "uint256",
          "name": "amount",
          "type": "uint256"
        }
      ],
      "name": "approve",
      "outputs": [
        {
          "internalType": "bool",
          "name": "",
          "type": "bool"
        }
      ],
      "stateMutability": "nonpayable",
      "type": "function"
    },
    {
      "inputs": [
        {
          "internalType": "address",
          "name": "account",
          "type": "address"
        }
      ],
      "name": "balanceOf",
      "outputs": [
        {
          "internalType": "uint256",
          "name": "",
          "type": "uint256"
        }
      ],
      "stateMutability": "view",
      "type": "function"
    },
    {
      "inputs": [
        {
          "internalType": "address",
          "name": "",
          "type": "address"
        },
        {
          "internalType": "uint256",
          "name": "",
          "type": "uint256"
        }
      ],
      "name": "checkpoints",
      "outputs": [
        {
          "internalType": "uint256",
          "name": "",
          "type": "uint256"
        }
      ],
      "stateMutability": "view",
      "type": "function"
    },
    {
      "inputs": [],
      "name": "decimals",
      "outputs": [
        {
          "internalType": "uint8",
          "name": "",
          "type": "uint8"
        }
      ],
      "stateMutability": "view",
      "type": "function"
    },
    {
      "inputs": [
        {
          "internalType": "address",
          "name": "spender",
          "type": "address"
        },
        {
          "internalType": "uint256",
          "name": "subtractedValue",
          "type": "uint256"
        }
      ],
      "name": "decreaseAllowance",
      "outputs": [
        {
          "internalType": "bool",
          "name": "",
          "type": "bool"
        }
      ],
      "stateMutability": "nonpayable",
      "type": "function"
    },
    {
      "inputs": [
        {
          "internalType": "uint256",
          "name": "",
          "type": "uint256"
        }
      ],
      "name": "has_deposited",
      "outputs": [
        {
          "internalType": "bool",
          "name": "",
          "type": "bool"
        }
      ],
      "stateMutability": "view",
      "type": "function"
    },
    {
      "inputs": [
        {
          "internalType": "address",
          "name": "spender",
          "type": "address"
        },
        {
          "internalType": "uint256",
          "name": "addedValue",
          "type": "uint256"
        }
      ],
      "name": "increaseAllowance",
      "outputs": [
        {
          "internalType": "bool",
          "name": "",
          "type": "bool"
        }
      ],
      "stateMutability": "nonpayable",
      "type": "function"
    },
    {
      "inputs": [],
      "name": "name",
      "outputs": [
        {
          "internalType": "string",
          "name": "",
          "type": "string"
        }
      ],
      "stateMutability": "view",
      "type": "function"
    },
    {
      "inputs": [],
      "name": "owner",
      "outputs": [
        {
          "internalType": "address",
          "name": "",
          "type": "address"
        }
      ],
      "stateMutability": "view",
      "type": "function"
    },
    {
      "inputs": [],
      "name": "renounceOwnership",
      "outputs": [],
      "stateMutability": "nonpayable",
      "type": "function"
    },
    {
      "inputs": [
        {
          "internalType": "uint256",
          "name": "",
          "type": "uint256"
        }
      ],
      "name": "staking_accounts",
      "outputs": [
        {
          "internalType": "address",
          "name": "",
          "type": "address"
        }
      ],
      "stateMutability": "view",
      "type": "function"
    },
    {
      "inputs": [],
      "name": "symbol",
      "outputs": [
        {
          "internalType": "string",
          "name": "",
          "type": "string"
        }
      ],
      "stateMutability": "view",
      "type": "function"
    },
    {
      "inputs": [],
      "name": "totalSupply",
      "outputs": [
        {
          "internalType": "uint256",
          "name": "",
          "type": "uint256"
        }
      ],
      "stateMutability": "view",
      "type": "function"
    },
    {
      "inputs": [
        {
          "internalType": "address",
          "name": "to",
          "type": "address"
        },
        {
          "internalType": "uint256",
          "name": "amount",
          "type": "uint256"
        }
      ],
      "name": "transfer",
      "outputs": [
        {
          "internalType": "bool",
          "name": "",
          "type": "bool"
        }
      ],
      "stateMutability": "nonpayable",
      "type": "function"
    },
    {
      "inputs": [
        {
          "internalType": "address",
          "name": "from",
          "type": "address"
        },
        {
          "internalType": "address",
          "name": "to",
          "type": "address"
        },
        {
          "internalType": "uint256",
          "name": "amount",
          "type": "uint256"
        }
      ],
      "name": "transferFrom",
      "outputs": [
        {
          "internalType": "bool",
          "name": "",
          "type": "bool"
        }
      ],
      "stateMutability": "nonpayable",
      "type": "function"
    },
    {
      "inputs": [
        {
          "internalType": "address",
          "name": "newOwner",
          "type": "address"
        }
      ],
      "name": "transferOwnership",
      "outputs": [],
      "stateMutability": "nonpayable",
      "type": "function"
    },
    {
      "inputs": [
        {
          "internalType": "uint256",
          "name": "tokenId",
          "type": "uint256"
        }
      ],
      "name": "aprovar",
      "outputs": [],
      "stateMutability": "nonpayable",
      "type": "function"
    },
    {
      "inputs": [
        {
          "internalType": "uint256",
          "name": "tokenId",
          "type": "uint256"
        }
      ],
      "name": "deposit",
      "outputs": [],
      "stateMutability": "nonpayable",
      "type": "function"
    },
    {
      "inputs": [
        {
          "internalType": "uint256",
          "name": "tokenId",
          "type": "uint256"
        }
      ],
      "name": "withdraw",
      "outputs": [],
      "stateMutability": "nonpayable",
      "type": "function"
    },
    {
      "inputs": [
        {
          "internalType": "address",
          "name": "beneficiary",
          "type": "address"
        },
        {
          "internalType": "uint256",
          "name": "tokenId",
          "type": "uint256"
        }
      ],
      "name": "collect",
      "outputs": [],
      "stateMutability": "nonpayable",
      "type": "function"
    },
    {
      "inputs": [
        {
          "internalType": "uint256",
          "name": "tokenId",
          "type": "uint256"
        }
      ],
      "name": "hashimaOnStaking",
      "outputs": [
        {
          "internalType": "bool",
          "name": "",
          "type": "bool"
        }
      ],
      "stateMutability": "view",
      "type": "function"
    },
    {
      "inputs": [
        {
          "internalType": "address",
          "name": "beneficiary",
          "type": "address"
        },
        {
          "internalType": "uint256",
          "name": "tokenId",
          "type": "uint256"
        }
      ],
      "name": "calculateReward",
      "outputs": [
        {
          "internalType": "uint256",
          "name": "",
          "type": "uint256"
        }
      ],
      "stateMutability": "view",
      "type": "function"
    }
  ],
  "bytecode": "0x608060405260646009553480156200001657600080fd5b5060405162002dcf38038062002dcf83398181016040528101906200003c919062000484565b6040518060400160405280600981526020017f456475636174696f6e00000000000000000000000000000000000000000000008152506040518060400160405280600481526020017f45444449000000000000000000000000000000000000000000000000000000008152508160039080519060200190620000c0929190620003bd565b508060049080519060200190620000d9929190620003bd565b505050620000fc620000f06200016c60201b60201c565b6200017460201b60201c565b62000124337505190f96b91344ae3d7fb96a90c95b506940000000006200023a60201b60201c565b80600c60006101000a81548173ffffffffffffffffffffffffffffffffffffffff021916908373ffffffffffffffffffffffffffffffffffffffff16021790555050620006be565b600033905090565b6000600560009054906101000a900473ffffffffffffffffffffffffffffffffffffffff16905081600560006101000a81548173ffffffffffffffffffffffffffffffffffffffff021916908373ffffffffffffffffffffffffffffffffffffffff1602179055508173ffffffffffffffffffffffffffffffffffffffff168173ffffffffffffffffffffffffffffffffffffffff167f8be0079c531659141344cd1fd0a4f28419497f9722a3daafe3b4186f6b6457e060405160405180910390a35050565b600073ffffffffffffffffffffffffffffffffffffffff168273ffffffffffffffffffffffffffffffffffffffff161415620002ad576040517f08c379a0000000000000000000000000000000000000000000000000000000008152600401620002a490620004e8565b60405180910390fd5b620002c160008383620003b360201b60201c565b8060026000828254620002d5919062000538565b92505081905550806000808473ffffffffffffffffffffffffffffffffffffffff1673ffffffffffffffffffffffffffffffffffffffff16815260200190815260200160002060008282546200032c919062000538565b925050819055508173ffffffffffffffffffffffffffffffffffffffff16600073ffffffffffffffffffffffffffffffffffffffff167fddf252ad1be2c89b69c2b068fc378daa952ba7f163c4a11628f55a4df523b3ef836040516200039391906200050a565b60405180910390a3620003af60008383620003b860201b60201c565b5050565b505050565b505050565b828054620003cb90620005e7565b90600052602060002090601f016020900481019282620003ef57600085556200043b565b82601f106200040a57805160ff19168380011785556200043b565b828001600101855582156200043b579182015b828111156200043a5782518255916020019190600101906200041d565b5b5090506200044a91906200044e565b5090565b5b80821115620004695760008160009055506001016200044f565b5090565b6000815190506200047e81620006a4565b92915050565b6000602082840312156200049757600080fd5b6000620004a7848285016200046d565b91505092915050565b6000620004bf601f8362000527565b9150620004cc826200067b565b602082019050919050565b620004e281620005dd565b82525050565b600060208201905081810360008301526200050381620004b0565b9050919050565b6000602082019050620005216000830184620004d7565b92915050565b600082825260208201905092915050565b60006200054582620005dd565b91506200055283620005dd565b9250827fffffffffffffffffffffffffffffffffffffffffffffffffffffffffffffffff038211156200058a57620005896200061d565b5b828201905092915050565b6000620005a282620005bd565b9050919050565b6000620005b68262000595565b9050919050565b600073ffffffffffffffffffffffffffffffffffffffff82169050919050565b6000819050919050565b600060028204905060018216806200060057607f821691505b602082108114156200061757620006166200064c565b5b50919050565b7f4e487b7100000000000000000000000000000000000000000000000000000000600052601160045260246000fd5b7f4e487b7100000000000000000000000000000000000000000000000000000000600052602260045260246000fd5b7f45524332303a206d696e7420746f20746865207a65726f206164647265737300600082015250565b620006af81620005a9565b8114620006bb57600080fd5b50565b61270180620006ce6000396000f3fe608060405234801561001057600080fd5b50600436106101735760003560e01c806370a08231116100de578063a9059cbb11610097578063d1760fac11610071578063d1760fac14610486578063dd62ed3e146104b6578063e68039c6146104e6578063f2fde38b1461051657610173565b8063a9059cbb1461040a578063af9d16321461043a578063b6b55f251461046a57610173565b806370a0823114610346578063715018a6146103765780638da5cb5b1461038057806395d89b411461039e578063975532dc146103bc578063a457c2d7146103da57610173565b80632e1a7d4d116101305780632e1a7d4d14610274578063313ce5671461029057806338608235146102ae57806339509351146102de57806357ddb1ed1461030e5780636b8357ac1461032a57610173565b806306fdde0314610178578063095ea7b3146101965780630cdfebfa146101c657806318160ddd146101f65780631852e8d91461021457806323b872dd14610244575b600080fd5b610180610532565b60405161018d9190611e4f565b60405180910390f35b6101b060048036038101906101ab9190611ab4565b6105c4565b6040516101bd9190611e34565b60405180910390f35b6101e060048036038101906101db9190611ab4565b6105e7565b6040516101ed9190612031565b60405180910390f35b6101fe61060c565b60405161020b9190612031565b60405180910390f35b61022e60048036038101906102299190611ab4565b610616565b60405161023b9190612031565b60405180910390f35b61025e60048036038101906102599190611a65565b6106be565b60405161026b9190611e34565b60405180910390f35b61028e60048036038101906102899190611b31565b6106ed565b005b6102986108b8565b6040516102a5919061204c565b60405180910390f35b6102c860048036038101906102c39190611b31565b6108c1565b6040516102d59190611e34565b60405180910390f35b6102f860048036038101906102f39190611ab4565b6108eb565b6040516103059190611e34565b60405180910390f35b61032860048036038101906103239190611b31565b610995565b005b610344600480360381019061033f9190611ab4565b610a27565b005b610360600480360381019061035b91906119d7565b610a99565b60405161036d9190612031565b60405180910390f35b61037e610ae1565b005b610388610b69565b6040516103959190611db9565b60405180910390f35b6103a6610b93565b6040516103b39190611e4f565b60405180910390f35b6103c4610c25565b6040516103d19190612031565b60405180910390f35b6103f460048036038101906103ef9190611ab4565b610c2b565b6040516104019190611e34565b60405180910390f35b610424600480360381019061041f9190611ab4565b610d15565b6040516104319190611e34565b60405180910390f35b610454600480360381019061044f9190611b31565b610d38565b6040516104619190611e34565b60405180910390f35b610484600480360381019061047f9190611b31565b610d58565b005b6104a0600480360381019061049b9190611af0565b611038565b6040516104ad9190611e34565b60405180910390f35b6104d060048036038101906104cb9190611a29565b61106e565b6040516104dd9190612031565b60405180910390f35b61050060048036038101906104fb9190611b31565b6110f5565b60405161050d9190611db9565b60405180910390f35b610530600480360381019061052b91906119d7565b611128565b005b60606003805461054190612254565b80601f016020809104026020016040519081016040528092919081815260200182805461056d90612254565b80156105ba5780601f1061058f576101008083540402835291602001916105ba565b820191906000526020600020905b81548152906001019060200180831161059d57829003601f168201915b5050505050905090565b6000806105cf611220565b90506105dc818585611228565b600191505092915050565b6006602052816000526040600020602052806000526040600020600091509150505481565b6000600254905090565b60006007600083815260200190815260200160002060009054906101000a900460ff1661064657600090506106b8565b6000600660008573ffffffffffffffffffffffffffffffffffffffff1673ffffffffffffffffffffffffffffffffffffffff168152602001908152602001600020600084815260200190815260200160002054905080436106a79190612189565b6009546106b4919061212f565b9150505b92915050565b6000806106c9611220565b90506106d68582856113f3565b6106e185858561147f565b60019150509392505050565b6007600082815260200190815260200160002060009054906101000a900460ff1661074d576040517f08c379a000000000000000000000000000000000000000000000000000000000815260040161074490611f11565b60405180910390fd5b3373ffffffffffffffffffffffffffffffffffffffff166008600083815260200190815260200160002060009054906101000a900473ffffffffffffffffffffffffffffffffffffffff1673ffffffffffffffffffffffffffffffffffffffff16146107ee576040517f08c379a00000000000000000000000000000000000000000000000000000000081526004016107e590611e91565b60405180910390fd5b6107f83382610a27565b600c60009054906101000a900473ffffffffffffffffffffffffffffffffffffffff1673ffffffffffffffffffffffffffffffffffffffff166323b872dd3033846040518463ffffffff1660e01b815260040161085793929190611dd4565b600060405180830381600087803b15801561087157600080fd5b505af1158015610885573d6000803e3d6000fd5b5050505060006007600083815260200190815260200160002060006101000a81548160ff02191690831515021790555050565b60006012905090565b60006007600083815260200190815260200160002060009054906101000a900460ff169050919050565b6000806108f6611220565b905061098a818585600160008673ffffffffffffffffffffffffffffffffffffffff1673ffffffffffffffffffffffffffffffffffffffff16815260200190815260200160002060008973ffffffffffffffffffffffffffffffffffffffff1673ffffffffffffffffffffffffffffffffffffffff1681526020019081526020016000205461098591906120d9565b611228565b600191505092915050565b600c60009054906101000a900473ffffffffffffffffffffffffffffffffffffffff1673ffffffffffffffffffffffffffffffffffffffff1663095ea7b330836040518363ffffffff1660e01b81526004016109f2929190611e0b565b600060405180830381600087803b158015610a0c57600080fd5b505af1158015610a20573d6000803e3d6000fd5b5050505050565b6000610a338383610616565b905043600660008573ffffffffffffffffffffffffffffffffffffffff1673ffffffffffffffffffffffffffffffffffffffff168152602001908152602001600020600084815260200190815260200160002081905550610a943382611700565b505050565b60008060008373ffffffffffffffffffffffffffffffffffffffff1673ffffffffffffffffffffffffffffffffffffffff168152602001908152602001600020549050919050565b610ae9611220565b73ffffffffffffffffffffffffffffffffffffffff16610b07610b69565b73ffffffffffffffffffffffffffffffffffffffff1614610b5d576040517f08c379a0000000000000000000000000000000000000000000000000000000008152600401610b5490611f91565b60405180910390fd5b610b676000611860565b565b6000600560009054906101000a900473ffffffffffffffffffffffffffffffffffffffff16905090565b606060048054610ba290612254565b80601f0160208091040260200160405190810160405280929190818152602001828054610bce90612254565b8015610c1b5780601f10610bf057610100808354040283529160200191610c1b565b820191906000526020600020905b815481529060010190602001808311610bfe57829003601f168201915b5050505050905090565b60095481565b600080610c36611220565b90506000600160008373ffffffffffffffffffffffffffffffffffffffff1673ffffffffffffffffffffffffffffffffffffffff16815260200190815260200160002060008673ffffffffffffffffffffffffffffffffffffffff1673ffffffffffffffffffffffffffffffffffffffff16815260200190815260200160002054905083811015610cfc576040517f08c379a0000000000000000000000000000000000000000000000000000000008152600401610cf390611ff1565b60405180910390fd5b610d098286868403611228565b60019250505092915050565b600080610d20611220565b9050610d2d81858561147f565b600191505092915050565b60076020528060005260406000206000915054906101000a900460ff1681565b600c60009054906101000a900473ffffffffffffffffffffffffffffffffffffffff1673ffffffffffffffffffffffffffffffffffffffff16636352211e826040518263ffffffff1660e01b8152600401610db39190612031565b60206040518083038186803b158015610dcb57600080fd5b505afa158015610ddf573d6000803e3d6000fd5b505050506040513d601f19601f82011682018060405250810190610e039190611a00565b73ffffffffffffffffffffffffffffffffffffffff163373ffffffffffffffffffffffffffffffffffffffff1614610e70576040517f08c379a0000000000000000000000000000000000000000000000000000000008152600401610e6790611f31565b60405180910390fd5b6007600082815260200190815260200160002060009054906101000a900460ff1615610ed1576040517f08c379a0000000000000000000000000000000000000000000000000000000008152600401610ec890611f71565b60405180910390fd5b43600660003373ffffffffffffffffffffffffffffffffffffffff1673ffffffffffffffffffffffffffffffffffffffff168152602001908152602001600020600083815260200190815260200160002081905550336008600083815260200190815260200160002060006101000a81548173ffffffffffffffffffffffffffffffffffffffff021916908373ffffffffffffffffffffffffffffffffffffffff160217905550600c60009054906101000a900473ffffffffffffffffffffffffffffffffffffffff1673ffffffffffffffffffffffffffffffffffffffff166323b872dd3330846040518463ffffffff1660e01b8152600401610fd793929190611dd4565b600060405180830381600087803b158015610ff157600080fd5b505af1158015611005573d6000803e3d6000fd5b5050505060016007600083815260200190815260200160002060006101000a81548160ff02191690831515021790555050565b600b818051602081018201805184825260208301602085012081835280955050505050506000915054906101000a900460ff1681565b6000600160008473ffffffffffffffffffffffffffffffffffffffff1673ffffffffffffffffffffffffffffffffffffffff16815260200190815260200160002060008373ffffffffffffffffffffffffffffffffffffffff1673ffffffffffffffffffffffffffffffffffffffff16815260200190815260200160002054905092915050565b60086020528060005260406000206000915054906101000a900473ffffffffffffffffffffffffffffffffffffffff1681565b611130611220565b73ffffffffffffffffffffffffffffffffffffffff1661114e610b69565b73ffffffffffffffffffffffffffffffffffffffff16146111a4576040517f08c379a000000000000000000000000000000000000000000000000000000000815260040161119b90611f91565b60405180910390fd5b600073ffffffffffffffffffffffffffffffffffffffff168173ffffffffffffffffffffffffffffffffffffffff161415611214576040517f08c379a000000000000000000000000000000000000000000000000000000000815260040161120b90611eb1565b60405180910390fd5b61121d81611860565b50565b600033905090565b600073ffffffffffffffffffffffffffffffffffffffff168373ffffffffffffffffffffffffffffffffffffffff161415611298576040517f08c379a000000000000000000000000000000000000000000000000000000000815260040161128f90611fd1565b60405180910390fd5b600073ffffffffffffffffffffffffffffffffffffffff168273ffffffffffffffffffffffffffffffffffffffff161415611308576040517f08c379a00000000000000000000000000000000000000000000000000000000081526004016112ff90611ed1565b60405180910390fd5b80600160008573ffffffffffffffffffffffffffffffffffffffff1673ffffffffffffffffffffffffffffffffffffffff16815260200190815260200160002060008473ffffffffffffffffffffffffffffffffffffffff1673ffffffffffffffffffffffffffffffffffffffff168152602001908152602001600020819055508173ffffffffffffffffffffffffffffffffffffffff168373ffffffffffffffffffffffffffffffffffffffff167f8c5be1e5ebec7d5bd14f71427d1e84f3dd0314c0f7b2291e5b200ac8c7c3b925836040516113e69190612031565b60405180910390a3505050565b60006113ff848461106e565b90507fffffffffffffffffffffffffffffffffffffffffffffffffffffffffffffffff8114611479578181101561146b576040517f08c379a000000000000000000000000000000000000000000000000000000000815260040161146290611ef1565b60405180910390fd5b6114788484848403611228565b5b50505050565b600073ffffffffffffffffffffffffffffffffffffffff168373ffffffffffffffffffffffffffffffffffffffff1614156114ef576040517f08c379a00000000000000000000000000000000000000000000000000000000081526004016114e690611fb1565b60405180910390fd5b600073ffffffffffffffffffffffffffffffffffffffff168273ffffffffffffffffffffffffffffffffffffffff16141561155f576040517f08c379a000000000000000000000000000000000000000000000000000000000815260040161155690611e71565b60405180910390fd5b61156a838383611926565b60008060008573ffffffffffffffffffffffffffffffffffffffff1673ffffffffffffffffffffffffffffffffffffffff168152602001908152602001600020549050818110156115f0576040517f08c379a00000000000000000000000000000000000000000000000000000000081526004016115e790611f51565b60405180910390fd5b8181036000808673ffffffffffffffffffffffffffffffffffffffff1673ffffffffffffffffffffffffffffffffffffffff16815260200190815260200160002081905550816000808573ffffffffffffffffffffffffffffffffffffffff1673ffffffffffffffffffffffffffffffffffffffff168152602001908152602001600020600082825461168391906120d9565b925050819055508273ffffffffffffffffffffffffffffffffffffffff168473ffffffffffffffffffffffffffffffffffffffff167fddf252ad1be2c89b69c2b068fc378daa952ba7f163c4a11628f55a4df523b3ef846040516116e79190612031565b60405180910390a36116fa84848461192b565b50505050565b600073ffffffffffffffffffffffffffffffffffffffff168273ffffffffffffffffffffffffffffffffffffffff161415611770576040517f08c379a000000000000000000000000000000000000000000000000000000000815260040161176790612011565b60405180910390fd5b61177c60008383611926565b806002600082825461178e91906120d9565b92505081905550806000808473ffffffffffffffffffffffffffffffffffffffff1673ffffffffffffffffffffffffffffffffffffffff16815260200190815260200160002060008282546117e391906120d9565b925050819055508173ffffffffffffffffffffffffffffffffffffffff16600073ffffffffffffffffffffffffffffffffffffffff167fddf252ad1be2c89b69c2b068fc378daa952ba7f163c4a11628f55a4df523b3ef836040516118489190612031565b60405180910390a361185c6000838361192b565b5050565b6000600560009054906101000a900473ffffffffffffffffffffffffffffffffffffffff16905081600560006101000a81548173ffffffffffffffffffffffffffffffffffffffff021916908373ffffffffffffffffffffffffffffffffffffffff1602179055508173ffffffffffffffffffffffffffffffffffffffff168173ffffffffffffffffffffffffffffffffffffffff167f8be0079c531659141344cd1fd0a4f28419497f9722a3daafe3b4186f6b6457e060405160405180910390a35050565b505050565b505050565b600061194361193e8461208c565b612067565b90508281526020810184848401111561195b57600080fd5b611966848285612212565b509392505050565b60008135905061197d8161269d565b92915050565b6000815190506119928161269d565b92915050565b600082601f8301126119a957600080fd5b81356119b9848260208601611930565b91505092915050565b6000813590506119d1816126b4565b92915050565b6000602082840312156119e957600080fd5b60006119f78482850161196e565b91505092915050565b600060208284031215611a1257600080fd5b6000611a2084828501611983565b91505092915050565b60008060408385031215611a3c57600080fd5b6000611a4a8582860161196e565b9250506020611a5b8582860161196e565b9150509250929050565b600080600060608486031215611a7a57600080fd5b6000611a888682870161196e565b9350506020611a998682870161196e565b9250506040611aaa868287016119c2565b9150509250925092565b60008060408385031215611ac757600080fd5b6000611ad58582860161196e565b9250506020611ae6858286016119c2565b9150509250929050565b600060208284031215611b0257600080fd5b600082013567ffffffffffffffff811115611b1c57600080fd5b611b2884828501611998565b91505092915050565b600060208284031215611b4357600080fd5b6000611b51848285016119c2565b91505092915050565b611b63816121bd565b82525050565b611b72816121cf565b82525050565b6000611b83826120bd565b611b8d81856120c8565b9350611b9d818560208601612221565b611ba681612344565b840191505092915050565b6000611bbe6023836120c8565b9150611bc982612355565b604082019050919050565b6000611be1600f836120c8565b9150611bec826123a4565b602082019050919050565b6000611c046026836120c8565b9150611c0f826123cd565b604082019050919050565b6000611c276022836120c8565b9150611c328261241c565b604082019050919050565b6000611c4a601d836120c8565b9150611c558261246b565b602082019050919050565b6000611c6d6015836120c8565b9150611c7882612494565b602082019050919050565b6000611c906014836120c8565b9150611c9b826124bd565b602082019050919050565b6000611cb36026836120c8565b9150611cbe826124e6565b604082019050919050565b6000611cd66018836120c8565b9150611ce182612535565b602082019050919050565b6000611cf96020836120c8565b9150611d048261255e565b602082019050919050565b6000611d1c6025836120c8565b9150611d2782612587565b604082019050919050565b6000611d3f6024836120c8565b9150611d4a826125d6565b604082019050919050565b6000611d626025836120c8565b9150611d6d82612625565b604082019050919050565b6000611d85601f836120c8565b9150611d9082612674565b602082019050919050565b611da4816121fb565b82525050565b611db381612205565b82525050565b6000602082019050611dce6000830184611b5a565b92915050565b6000606082019050611de96000830186611b5a565b611df66020830185611b5a565b611e036040830184611d9b565b949350505050565b6000604082019050611e206000830185611b5a565b611e2d6020830184611d9b565b9392505050565b6000602082019050611e496000830184611b69565b92915050565b60006020820190508181036000830152611e698184611b78565b905092915050565b60006020820190508181036000830152611e8a81611bb1565b9050919050565b60006020820190508181036000830152611eaa81611bd4565b9050919050565b60006020820190508181036000830152611eca81611bf7565b9050919050565b60006020820190508181036000830152611eea81611c1a565b9050919050565b60006020820190508181036000830152611f0a81611c3d565b9050919050565b60006020820190508181036000830152611f2a81611c60565b9050919050565b60006020820190508181036000830152611f4a81611c83565b9050919050565b60006020820190508181036000830152611f6a81611ca6565b9050919050565b60006020820190508181036000830152611f8a81611cc9565b9050919050565b60006020820190508181036000830152611faa81611cec565b9050919050565b60006020820190508181036000830152611fca81611d0f565b9050919050565b60006020820190508181036000830152611fea81611d32565b9050919050565b6000602082019050818103600083015261200a81611d55565b9050919050565b6000602082019050818103600083015261202a81611d78565b9050919050565b60006020820190506120466000830184611d9b565b92915050565b60006020820190506120616000830184611daa565b92915050565b6000612071612082565b905061207d8282612286565b919050565b6000604051905090565b600067ffffffffffffffff8211156120a7576120a6612315565b5b6120b082612344565b9050602081019050919050565b600081519050919050565b600082825260208201905092915050565b60006120e4826121fb565b91506120ef836121fb565b9250827fffffffffffffffffffffffffffffffffffffffffffffffffffffffffffffffff03821115612124576121236122b7565b5b828201905092915050565b600061213a826121fb565b9150612145836121fb565b9250817fffffffffffffffffffffffffffffffffffffffffffffffffffffffffffffffff048311821515161561217e5761217d6122b7565b5b828202905092915050565b6000612194826121fb565b915061219f836121fb565b9250828210156121b2576121b16122b7565b5b828203905092915050565b60006121c8826121db565b9050919050565b60008115159050919050565b600073ffffffffffffffffffffffffffffffffffffffff82169050919050565b6000819050919050565b600060ff82169050919050565b82818337600083830152505050565b60005b8381101561223f578082015181840152602081019050612224565b8381111561224e576000848401525b50505050565b6000600282049050600182168061226c57607f821691505b602082108114156122805761227f6122e6565b5b50919050565b61228f82612344565b810181811067ffffffffffffffff821117156122ae576122ad612315565b5b80604052505050565b7f4e487b7100000000000000000000000000000000000000000000000000000000600052601160045260246000fd5b7f4e487b7100000000000000000000000000000000000000000000000000000000600052602260045260246000fd5b7f4e487b7100000000000000000000000000000000000000000000000000000000600052604160045260246000fd5b6000601f19601f8301169050919050565b7f45524332303a207472616e7366657220746f20746865207a65726f206164647260008201527f6573730000000000000000000000000000000000000000000000000000000000602082015250565b7f4f6e6c7920746865205374616b65720000000000000000000000000000000000600082015250565b7f4f776e61626c653a206e6577206f776e657220697320746865207a65726f206160008201527f6464726573730000000000000000000000000000000000000000000000000000602082015250565b7f45524332303a20617070726f766520746f20746865207a65726f20616464726560008201527f7373000000000000000000000000000000000000000000000000000000000000602082015250565b7f45524332303a20696e73756666696369656e7420616c6c6f77616e6365000000600082015250565b7f4e6f20746f6b656e7320746f2077697468646172770000000000000000000000600082015250565b7f53656e646572206d757374206265206f776e6572000000000000000000000000600082015250565b7f45524332303a207472616e7366657220616d6f756e742065786365656473206260008201527f616c616e63650000000000000000000000000000000000000000000000000000602082015250565b7f53656e64657220616c7265616479206465706f73697465640000000000000000600082015250565b7f4f776e61626c653a2063616c6c6572206973206e6f7420746865206f776e6572600082015250565b7f45524332303a207472616e736665722066726f6d20746865207a65726f20616460008201527f6472657373000000000000000000000000000000000000000000000000000000602082015250565b7f45524332303a20617070726f76652066726f6d20746865207a65726f2061646460008201527f7265737300000000000000000000000000000000000000000000000000000000602082015250565b7f45524332303a2064656372656173656420616c6c6f77616e63652062656c6f7760008201527f207a65726f000000000000000000000000000000000000000000000000000000602082015250565b7f45524332303a206d696e7420746f20746865207a65726f206164647265737300600082015250565b6126a6816121bd565b81146126b157600080fd5b50565b6126bd816121fb565b81146126c857600080fd5b5056fea264697066735822122044d79d7f0cb95d3eb6bc95255872a44aafb7646ec420d8b1b77daefa76b453eb64736f6c63430008030033",
  "immutableReferences": {},
  "source": "// SPDX-License-Identifier: MIT\npragma solidity ^0.8.0;\n\nimport \"@openzeppelin/contracts/token/ERC20/ERC20.sol\";\nimport \"@openzeppelin/contracts/utils/Counters.sol\";\nimport \"@openzeppelin/contracts/access/Ownable.sol\";\nimport \"./Deccert.sol\";\n\n\ncontract Eddi is ERC20,Ownable{\n\n    mapping(address => mapping(uint256=>uint256)) public checkpoints;\n    mapping(uint256 => bool) public has_deposited;\n    mapping(uint256 => address) public staking_accounts;\n\n\n    uint public REWARD_PER_BLOCK = 100;\n \n    mapping(address=>uint256) private tolerance;\n    //check the string use by the user is not repeat\n    mapping(string=>bool)public _names;\n\n    Deccert private contratoBase;\n    constructor(Deccert deccert_contract) ERC20(\"Education\", \"EDDI\") {\n      _mint(msg.sender, 500**19);\n      contratoBase=deccert_contract;\n    }\n    \n    function aprovar(uint256 tokenId)external{\n        contratoBase.approve(address(this), tokenId);\n    }\n\n    function deposit(uint256 tokenId) external{\n        require (msg.sender == contratoBase.ownerOf(tokenId), 'Sender must be owner');\n        require (!has_deposited[tokenId], 'Sender already deposited');\n        //La altura del bloque de partida\n        checkpoints[msg.sender][tokenId] = block.number;\n        staking_accounts[tokenId]=msg.sender;\n        \n        contratoBase.transferFrom(msg.sender, address(this), tokenId);\n      \n        has_deposited[tokenId]=true;\n   }\n\n    function withdraw(uint256 tokenId) external{\n        require(has_deposited[tokenId], 'No tokens to withdarw');\n        require(staking_accounts[tokenId]==msg.sender,'Only the Staker');\n        collect(msg.sender,tokenId);\n        contratoBase.transferFrom(address(this), msg.sender, tokenId);\n        \n        has_deposited[tokenId]=false;\n    }\n\n    function collect(address beneficiary,uint256 tokenId) public{\n        uint256 reward = calculateReward(beneficiary,tokenId);\n        checkpoints[beneficiary][tokenId] = block.number;      \n        _mint(msg.sender, reward);\n    }\n\n    function hashimaOnStaking(uint256 tokenId)public view returns(bool){\n        return has_deposited[tokenId];\n    }\n\n    function calculateReward(address beneficiary,uint256 tokenId) public view returns(uint256){\n        if(!has_deposited[tokenId])return 0;\n        \n        uint256 checkpoint = checkpoints[beneficiary][tokenId];\n        return REWARD_PER_BLOCK*(block.number-checkpoint);\n    }\n\n\n\n}\n",
  "sourcePath": "/Users/aarontolentino/Documents/B-Deccert/Deccert/contracts/Eddi.sol",
  "compiler": {
    "name": "solc",
    "version": "0.8.3+commit.8d00100c.Emscripten.clang"
  },
  "schemaVersion": "3.4.1",
  "updatedAt": "2022-09-29T20:00:32.913Z",
  "devdoc": {
    "kind": "dev",
    "methods": {
      "allowance(address,address)": {
        "details": "See {IERC20-allowance}."
      },
      "approve(address,uint256)": {
        "details": "See {IERC20-approve}. NOTE: If `amount` is the maximum `uint256`, the allowance is not updated on `transferFrom`. This is semantically equivalent to an infinite approval. Requirements: - `spender` cannot be the zero address."
      },
      "balanceOf(address)": {
        "details": "See {IERC20-balanceOf}."
      },
      "decimals()": {
        "details": "Returns the number of decimals used to get its user representation. For example, if `decimals` equals `2`, a balance of `505` tokens should be displayed to a user as `5.05` (`505 / 10 ** 2`). Tokens usually opt for a value of 18, imitating the relationship between Ether and Wei. This is the value {ERC20} uses, unless this function is overridden; NOTE: This information is only used for _display_ purposes: it in no way affects any of the arithmetic of the contract, including {IERC20-balanceOf} and {IERC20-transfer}."
      },
      "decreaseAllowance(address,uint256)": {
        "details": "Atomically decreases the allowance granted to `spender` by the caller. This is an alternative to {approve} that can be used as a mitigation for problems described in {IERC20-approve}. Emits an {Approval} event indicating the updated allowance. Requirements: - `spender` cannot be the zero address. - `spender` must have allowance for the caller of at least `subtractedValue`."
      },
      "increaseAllowance(address,uint256)": {
        "details": "Atomically increases the allowance granted to `spender` by the caller. This is an alternative to {approve} that can be used as a mitigation for problems described in {IERC20-approve}. Emits an {Approval} event indicating the updated allowance. Requirements: - `spender` cannot be the zero address."
      },
      "name()": {
        "details": "Returns the name of the token."
      },
      "owner()": {
        "details": "Returns the address of the current owner."
      },
      "renounceOwnership()": {
        "details": "Leaves the contract without owner. It will not be possible to call `onlyOwner` functions anymore. Can only be called by the current owner. NOTE: Renouncing ownership will leave the contract without an owner, thereby removing any functionality that is only available to the owner."
      },
      "symbol()": {
        "details": "Returns the symbol of the token, usually a shorter version of the name."
      },
      "totalSupply()": {
        "details": "See {IERC20-totalSupply}."
      },
      "transfer(address,uint256)": {
        "details": "See {IERC20-transfer}. Requirements: - `to` cannot be the zero address. - the caller must have a balance of at least `amount`."
      },
      "transferFrom(address,address,uint256)": {
        "details": "See {IERC20-transferFrom}. Emits an {Approval} event indicating the updated allowance. This is not required by the EIP. See the note at the beginning of {ERC20}. NOTE: Does not update the allowance if the current allowance is the maximum `uint256`. Requirements: - `from` and `to` cannot be the zero address. - `from` must have a balance of at least `amount`. - the caller must have allowance for ``from``'s tokens of at least `amount`."
      },
      "transferOwnership(address)": {
        "details": "Transfers ownership of the contract to a new account (`newOwner`). Can only be called by the current owner."
      }
    },
    "version": 1
  },
  "userdoc": {
    "kind": "user",
    "methods": {},
    "version": 1
  }
}